:020000040800F2
:10000000A8160020D5000008F91000081D100008EF
:1000100000000000000000000000000000000000E0
:100020000000000000000000000000002F18000881
:10003000000000000000000051130008751B0008BC
:100040000501000805010008050100080501000878
:10005000050100080501000805010008B90D0008A8
:1000600005010008050100089109000805010008C4
:100070000501000805010008050100080501000848
:100080000501000805010008D11C0008991C0008A2
:100090000501000805010008050100080501000828
:1000A000050100080501000805010008A91E000857
:1000B0000501000805010008050100080501000808
:1000C0000348854600F03AFB004800478D3D000894
:1000D000A81600200C4880F308880C480168090E17
:1000E0000B4A914205D10B480B4901600B480C4962
:1000F00001600C4880470C480047FEE7FEE7FEE73A
:10010000FEE7FEE7FEE70000A8160020040000005E
:100110001F00000018100240010000000000014014
:1001200000000000851B0008C100000830B50B4628
:10013000014600202022012409E00D46D5409D42C1
:1001400005D31D469540491B254695404019154647
:10015000521E002DF1DC30BD70B50024254600286C
:1001600001DA01244042002901DA01254942FFF762
:10017000DDFFAC4200D04042002C00D0494270BDAF
:1001800003460B439B0703D009E008C9121F08C0B0
:10019000042AFAD203E00B780370401C491C521E5B
:1001A000F9D27047D2B201E00270401C491EFBD266
:1001B00070470022F6E710B513460A460446194672
:1001C000FFF7F0FF204610BD024670B54A40D30F3E
:1001D000DB0740002DD04A002AD0010E140E000289
:1001E00012020919400A520A8418E50104465443D0
:1001F000000A120A2E045043A4194219200CC543C8
:10020000AA18120C0125AD03521C521912047F3991
:10021000240400D0521C104301D44000491EC2B235
:100220000C06C0092018401C4008802A02D003E0B8
:10023000002070BD40084000002900DA002018436B
:1002400070BD0000F0B51FB488B00B990998002468
:1002500048400999C00F490049080991C0070B9906
:100260000090490049080B9109990898A64608434F
:100270001CD00B990A98084318D009980124400013
:10028000420D4800410D099824050003000B20434E
:1002900009900B980003000B20430B9050181C4949
:1002A0004018002201901446104605E00020014647
:1002B0000DB0F0BD032801DA034600E003239C469D
:1002C000C11A0AAE0AE05F0008ADED5B4F00F75BB4
:1002D0007D430027AA187C41491C5B1E6145F2DD65
:1002E000410004AB5A522104120C0A43240C401C56
:1002F0000828DFDB01980290009970460191009078
:10030000059B049A0799069800F0E0F8D0E70000F2
:100310000DFCFFFFF0B50C465C4085B0E40FE40730
:1003200003944C000026640859009446490802468C
:100330000296224321D062460A431ED06200570D26
:100340004A000E032303550D012402462C492405BF
:10035000781B1B0B360B4018234326436146009045
:100360001C46501AB44103D30098401C009002E090
:10037000921800985B41002803DA0020014605B07E
:10038000F0BD0020012109050746864611E06446BC
:100390001D46141BB54106D36546521BB341744636
:1003A00007430C43A646CD07400849082843921846
:1003B0005B4105460D43EAD11046184313D0604611
:1003C000194650407140084306D06046101AB341A8
:1003D00006D20122002306E000220123DB0702E00F
:1003E0000122D2435310009874460105381C614124
:1003F000029C039D0019694100F05BF8BFE7000013
:10040000FD0300000EB505490291002100910A4646
:100410000B46019100F05AF803B000BD3304000010
:10042000C20F410040020123400ADB05D207090E3A
:10043000C0187F2901DA00207047962903DC962333
:10044000591AC84001E096398840002AF4D0404249
:100450007047F0B51FB40646002082B00546402420
:10046000019100901BE0019922460F46304600F0B2
:1004700087F9049A059B801A994110D310461946B2
:10048000224600F06DF9361A8F410197224601206D
:100490000021009F00F064F938184D41009020467B
:1004A000641E0028DFDC019B00982946324607B015
:1004B000F0BD10B5002B08DA0024401C61419218F1
:1004C0005B411A4301D14008400010BDF0B51FB494
:1004D00082B005460C0003D0084602F063F802E043
:1004E00002F060F82030024600902146284600F0D5
:1004F00037F9049B059A04460F46184311430843F5
:1005000014D0184610431BD0009840210A1A1846F0
:10051000059900F035F905460E46009A05990498AC
:1005200000F01EF9084305D0012004E020463946BA
:1005300007B0F0BD0020C11705430E432C433743DD
:1005400000990E986305401A7905E40A00220C43CD
:10055000FD0A0A3002D500200146E9E7010510191D
:1005600069410C9C0D9D00196941FFF7A2FFDFE76F
:10057000F0B507460846584087B0C00F04904800C1
:100580000E46590040084908BC1A884105D2384631
:1005900031461E4617460B46024658004008104397
:1005A0004CD0300D039040055900400D490D059089
:1005B000401A0290402872DA18030121000B090545
:1005C0000843019004980092002805D001995242F6
:1005D0000020884100920190029840210A1A019956
:1005E000009800F0BDF805460C466B4607CB00F0BE
:1005F000D8F8C0197141039A0E0D0023D717564041
:100600001A467A40164344D0049A002A2DD0029A02
:10061000012A039A15DC1205C01A914101263605FC
:10062000001C7141D20F059ED207009301920296E1
:100630002A462346FFF74AFF07B0F0BD3846314649
:10064000FAE71605224A0F46B218C01AB74101212F
:100650000905001C4F4100187F41114618187941C7
:10066000E20F10436D19644113E0E2076D08154372
:100670006408C2071443039A01261205C01A914167
:100680003605001C7141CE07400830434908C018A8
:1006900051412A462346FFF70CFFCDE7FFE70498B8
:1006A00001224000C117121A00238B4104983146E1
:1006B000C417381AA141EEE730B40124E4076340BF
:1006C00030BC55E730B40124E407614030BC4FE74B
:1006D0000000E0FF4A0009030123090B1B05194331
:1006E0000A4B10B5520D9A4202DA0020014610BDA5
:1006F000064B34339A4203DC9A1A00F041F810BDDD
:10070000034BD21800F02CF810BD0000FF030000CE
:10071000CDFBFFFF10B5002904DB0124E4074042B4
:100720008C412146002B04DB1C460123DB0752428F
:10073000A341994200D1904210BD0000064C012512
:10074000064E05E0E36807CC2B430C3C9847103479
:10075000B442F7D3FFF7B8FC90590008B05900082D
:1007600010B5202A04DB0146203A9140002010BD3C
:10077000914020239C1A0346E3401943904010BD4A
:1007800010B5202A04DB0846203AD040002110BDD5
:100790000B46D340D0402024A21A9140084319466A
:1007A00010BD10B5202A06DBCB170846203A1041B1
:1007B000C1170B4306E00B461341D0402024A21A78
:1007C00091400843194610BD70B58C180578401C3F
:1007D0006B075B0F01D10378401C2A1106D1027808
:1007E000401C03E006780E70401C491C5B1EF9D1CA
:1007F0002B0705D40023521E0DD40B70491CFAE7B9
:100800000378401CCB1A921C03E01D780D70491C24
:100810005B1C521EF9D5A142D8D3002070BD000048
:1008200000B585B0142228496846FFF7A9FC27487F
:1008300000789021484326494018C17968464171A3
:10084000224800789021484321494018017A68469F
:10085000817120480068C1B2684681721D480068F5
:100860000004010E6846C1721A4800680002010EB9
:100870006846017317480068010E684641731648C0
:100880000178684681731448008801126846C17374
:1008900002F0BCFD00226946122003F0AEF90022EE
:1008A0001146122003F0BEF9022003F0F5F800BF54
:1008B0000A4800780028FBD000200849087003F09F
:1008C00089FB002005B000BD24570008210000204E
:1008D00068090020EC000020E00000202300002038
:1008E0000146024801700068704700000030024075
:1008F0000020C04305490860054848610020087190
:10090000401E0861012088607047000000300240EE
:10091000B71DC10401480068704700000030024064
:1009200001460020054A9068182302469A43104663
:1009300002460A431046014A906070470030024068
:10094000034880680121084301498860704700001E
:100950000030024001490861704700000030024049
:1009600001494861704700000030024010B5012184
:10097000402000F001FDFFF7BBFF0020FFF7EAFF7A
:100980001020FFF7CDFF0720FFF7EAFF10BD0000A2
:1009900010B5202000F02CF8002808D0202000F00E
:1009A00009F8102000F006F800200149087010BD79
:1009B000C4000020012109070140002902D0034999
:1009C000486001E0024948607047000000040240AE
:1009D00000000240002904D0026801231A4302608B
:1009E00003E00268014B1A4002607047FEFF0000FE
:1009F00001460020002201231B070B40002B02D0E0
:100A0000064B1A6801E0064B1A6813460B40002B90
:100A100001D0012000E000207047000000040240E7
:100A200000000240002A03D003680B43036002E089
:100A300003688B430360704710B5002202680D4BBA
:100A40001A400C6A8B6823430C6923434C69234387
:100A50008C692343CC6923434C6A23438C6A234328
:100A60001A430260CB6843600B6883604B68C360C5
:100A700010BD00000F80FFFF10B50B4A904200D15F
:100A800000E000BFA82212580B0F9C000F23A340C8
:100A90009A43A8231A50A82212580B011B091A4383
:100AA000A8231A5010BD00000000024000B58DB010
:100AB0000121084600F060FC1020059000200890FD
:100AC000099006908020079000200A900C90114811
:100AD00003901020049040020B900F48029002A94E
:100AE0000E48FFF7A9FF0E490C481C38FFF7C4FF5A
:100AF000012202210948FFF795FF0A21684601718A
:100B0000032141710121817101A800F0ADFB0DB0FD
:100B100000BD000078100020283801401C00024071
:100B20008000001010B501200749087020200749F7
:100B3000086201228021064801F066FA00BF0248DF
:100B400000780028FBD110BDC40000200000024046
:100B500000380140F0B58DB000200A900F2104A8A4
:100B6000FFF727FB764A116850689268039201915B
:100B7000029000BF02F04AFC02F064FE01207149BD
:100B80000870714800789021484370494018C17935
:100B9000684641726C480078902148436B49401880
:100BA000017A684681726A4801786846C17268486D
:100BB000008801126846017311214173654802F0F3
:100BC00003FF00200090002201A90C2003F015F87B
:100BD000012200210C2003F025F8012002F0D8FEAC
:100BE000022002F059FF0B900B98401C002800D106
:100BF00097E000BF584800780028FBD000205649F5
:100C00000870009000BF00BF54480078002803D14E
:100C1000534800780028F7D050480078012809D1BF
:100C200000204E4908700098401CC0B2009000207F
:100C300002F0D5FD0098012800D164E04848007812
:100C40000028E0D0002046490870009003F073F8B7
:100C50000991089003F058F804460D462946414A88
:100C60000020A21841410906100A08430A900A9878
:100C700002F006FE0A98400840000021020E0B0216
:100C800013430102384A00208E1843411F4603A82F
:100C90000230099B089A02F0E8FF22462B4604A87E
:100CA000033002F0E2FF32463B4606A802F0DDFFC9
:100CB000132069464873002201A91B2002F09DFF02
:100CC000012200211B2002F0ADFF012002F0E4FE12
:100CD0000B900B98401C002800D122E000BF1E485A
:100CE00000780028FBD000201B49087002F050FE5D
:100CF000002002F069FE002002F071FD0020114981
:100D000008700DB0F0BD00200E49087002F040FEE2
:100D1000002002F059FE002002F061FD0020C043D7
:100D2000EFE700200749087002F032FE002002F0D1
:100D30004BFE002002F053FD0120C043E1E700001C
:100D400038570008280000202100002068090020F2
:100D5000C200002098080000230000202500002089
:100D6000260000200000DC056F40000001B581B0C6
:100D70000022009200200F4909688AB2009215E013
:100D80000C4909686A461288914206D309490968E4
:100D90006A461288891A88B208E0694609880022E2
:100DA000D243511A034A1268891888B201998842BD
:100DB000E6D30CBDEC00002010B50120000300F0CC
:100DC00063F800280FD000BF244800688047012145
:100DD00009030920C00600F013F90128F4D001200E
:100DE000000300F04BF80120C00200F04DF800288D
:100DF00032D00120C00200F041F8194800780028E4
:100E000027D100BF17480078322817DC1649097827
:100E10004901164A881800F0D4F9002811D1114868
:100E20000078401C0F49087032210F480078401CA0
:100E3000FFF792F9C8B20C49087002E00C4800F0C4
:100E4000C0F90121C9020B4800F0DAF80028D9D016
:100E500002E001200849087010BD000004000020D5
:100E600029000020080000200A00002024030020A0
:100E7000290F0020000400482A0000200149486191
:100E8000704700000004014001460020044A5269F6
:100E90000A40002A01D0012000E000207047000035
:100EA00000040140002120498279002A35D00A46F9
:100EB000126803689A430B461A600A465268036830
:100EC0009A430B465A60027951180A6803681A431C
:100ED0000A60154A926803689A43134B9A601A464F
:100EE000D26803689A43104BDA604279102A0CD119
:100EF0001A46926803681A430B4B9A601A46D268E6
:100F000003681A43084BDA600DE00749427951182B
:100F10000A6803681A430A6005E0027951180A68F2
:100F200003689A430A60704700040140F0B50A461E
:100F300000210023002400BF3DE001258D402B4609
:100F400015681D402C469C4234D11579012D02D0E4
:100F50001579022D16D185684F000326BE40B54392
:100F6000856055794E00B540866835438560858833
:100F700001268E40B5438580858896798E40B6B22D
:100F80003543858005684F000326BE40B5430560A4
:100F900015794E00B540066835430560C5684F00B9
:100FA0000326BE40B543C560D5794E00B540C6683E
:100FB0003543C560491C1029BFD3F0BDF0B50023EF
:100FC00000244D07EE0E1546B5402B46CD10AE0061
:100FD00005462035AD594E07F70E0F26BE40B543E6
:100FE000CE10B60007462037BD51CD10AE003D46AD
:100FF000AD591D432C46CD10AD003E467451F0BD99
:1010000002460020138A0B40002B01D0012000E093
:1010100000207047018570478161704700BFFEE77F
:101020000148024908607047CCCC00000030004005
:1010300010B500F015F810BD70B505460C46074810
:1010400000F022F8284600F013F8204600F016F8C9
:1010500000F006F8FFF7E4FF70BD000055550000F2
:101060000148024908607047AAAA00000030004009
:101070000149486070470000003000400149886025
:1010800070470000003000400149086070470000D0
:10109000003000401CB50121C80400F06DF90320A8
:1010A000C002009001216846017100218171032175
:1010B00041710121C17169460D48FFF737FF0121D8
:1010C000080500F059F904200090012168460171DB
:1010D00000218171032141710121C17169460548D7
:1010E000FFF724FF04210348FFF794FF1CBD000015
:1010F00000080048000C0048704700001FB515A10B
:1011000003C903910290002000900190052202A9DA
:10111000302000F075F805226946102000F01EF816
:1011200068460078112812D16846407822280ED1EE
:101130006846807833280AD16846C078442806D1AA
:1011400068460079552802D1002004B010BD012066
:10115000FBE700001122334455000000F8B50746B4
:101160000D46164610210920C006FFF753FF3846EA
:1011700000F02EFB0090002405E0FF2000F028FB8B
:101180002855601CC4B2B442F7DB10210920C00608
:10119000FFF742FF0098F8BD70B504461021092002
:1011A000C006FFF737FF204600F012FBFF2000F0DB
:1011B0000FFB054610210920C006FFF72DFF28462A
:1011C00070BD70B504460720FFF7E6FF05461720FF
:1011D000FFF7E2FF06462946272000F02FF84020BF
:1011E000284000280AD0202221466120FFF7B6FFC0
:1011F000FF21E22000F022F8002070BD0120FCE772
:10120000F8B507460C46154610210920C006FFF721
:1012100001FF384600F0DCFA0090002605E0207857
:10122000641C00F0D5FA701CC6B2AE42F7DB102188
:101230000920C006FFF7F0FE0098F8BD70B505461E
:101240000C4610210920C006FFF7E4FE284600F0F6
:10125000BFFA0646204600F0BBFA10210920C0065E
:10126000FFF7DAFE304670BD00218278002A27D0D1
:10127000184A03231B02D21803789B109B00D158F5
:1012800002789207D30EFF229A400B4693431946E9
:1012900042789207120E03789B07DB0E9A401143A7
:1012A0000C4A03231B02D21803789B109B00D150D9
:1012B0000278D306DB0E01229A40064B1A6007E043
:1012C0000278D306DB0E01229A40024B80331A606B
:1012D0007047000000E100E010B5002819DA1A4A52
:1012E00003071B0F083B9B089B00D2588307DC0EAB
:1012F000FF23A3409A438B071B0E8407E40EA340F1
:101300001A43114B0407240F083CA408A4001A51E7
:1013100018E00E4A03231B02D21883089B00D25800
:101320008307DC0EFF23A3409A438B071B0E840721
:10133000E40EA3401A43054B032424021B1984081E
:10134000A4001A5110BD00001CED00E000E100E017
:101350007047000010B50348016803A001F012F9BE
:1013600010BD0000F8000020616E63686F72206E8F
:10137000756D3D25640D0A00002905D0054A5269A6
:101380000243044B5A6104E0024A52698243014B12
:101390005A61704700100240002905D0054AD26901
:1013A0000243044BDA6104E0024AD2698243014BF2
:1013B000DA61704700100240002905D0054A9269A1
:1013C0000243044B9A6104E0024A92698243014B52
:1013D0009A61704700100240FEB5044600250026C1
:1013E00000200290019000900027864840680C2160
:1013F00008400546002D06D0042D07D0082D08D042
:101400000C2D2CD128E0804820602BE07E48206005
:1014100028E07C4840680F21890408400646794846
:1014200040680321C90308400290B00C861C029852
:10143000002803D17548374647430BE07148C06A1E
:101440000007000F401C01906F480199FEF76EFEE7
:1014500070430746276005E06D48206002E06A4857
:10146000206000BF00BF67484068F0210840054683
:101470002D096848405D009020680099C840606070
:101480006048406807210902084005462D0A614866
:10149000405D009061680098C140A1605948006BB0
:1014A000FF2101310840884202D05B48E0600DE036
:1014B00054484068012189030840884203D0A0684D
:1014C0004008E06002E0A0688008E0604D48006BE2
:1014D00040210840402802D05048206102E001200D
:1014E000C00320614748006B10210840102802D03B
:1014F0004548606101E0206860614248006B8007F8
:10150000800F002802D1A068A06119E03D48006B5F
:101510008007800F012802D12068A06110E03948BF
:10152000006B8007800F022802D18003A06107E0D2
:101530003448006B8007800F032801D13248A06136
:101540003048006B032109040840002802D1A0683C
:10155000E06120E02B48006B0321090408400121D1
:101560000904884202D12068E06114E02548006B3C
:1015700003210904084001214904884202D1801056
:10158000E06108E01F48006B03210904084088421D
:1015900001D11D48E0611B48006B0321890408400C
:1015A000002802D1A068206220E01648006B0321C9
:1015B0008904084001218904884202D12068206200
:1015C00014E01048006B0321890408400121C9047C
:1015D000884202D10011206208E00A48006B032112
:1015E00089040840884201D1074820620548006B01
:1015F00080210840802802D00548606200E06762D0
:10160000FEBD00000010024000127A0000093D00FB
:10161000006CDC02FC000020809FD50012800000DE
:10162000002904D0028840231A43028003E0028884
:10163000014B1A4002807047BFFF000002460020A5
:1016400013890B40002B01D0012000E000207047DF
:1016500010B500220288C1239B011A400B88CC8957
:101660002343CC8823430C8923434C8923438C890F
:1016700023431A4302808288084B1A408B881A43FE
:1016800082800B8A03820288054B1A404B881A43DA
:101690000280838B034C2340838310BDFFF0000046
:1016A000FBFF0000FFF7000000B587B00121072015
:1016B0004004FFF761FE01210803FFF77DFE2020B3
:1016C000059002216846017601214176002181764C
:1016D0000121C17605A90920C006FFF727FC40209B
:1016E000059005A90920C006FFF720FC8020059081
:1016F00005A90920C006FFF719FC002205210920D1
:10170000C006FFF75BFC002206210920C006FFF798
:1017100055FC002207210920C006FFF74FFC1020CE
:101720000590012168460176002181760121C1766C
:10173000417605A90920C006FFF7F8FB08200590AF
:10174000012168460176002181760121C17641762A
:1017500005A90920C006FFF7E9FB0120C00205909A
:101760000021684601760121C176417605A9164817
:10177000FFF7DCFB10210920C006FFF74DFC00211C
:1017800068460180FF2105314180072109028180DF
:101790000021C18001810121490241811021818103
:1017A0000021C1810721018269460848FFF750FFE7
:1017B00001210903054800F02BF801210348FFF738
:1017C0002FFF07B000BD00000004004800300140BA
:1017D00010B5044600BF02210948FFF72FFF00287B
:1017E000F9D02146064800F01DF800BF0121044849
:1017F000FFF724FF0028F9D0014800F003F810BDDE
:1018000000300140014600220A460C321078704731
:101810008288034B1A40828082880A438280704704
:10182000FFEF0000002202460C3211707047704733
:1018300030B500228B071C0F0F23A3401A460B4B19
:101840008C10A4001B599343084C8D10AD006351BC
:1018500023468C10A4001B598C07250F0446AC406E
:101860002343024C8D10AD00635130BD0800014090
:10187000F8B5112600277148007890214843704937
:101880004018704942890A80808948806B480078F6
:10189000902148436A4940186A49C2898A80008A6F
:1018A000C8806648007890214843654940186549DA
:1018B000428A0A81808A488138206349C8700120A1
:1018C00008715E480078902148435D494018C0790E
:1018D0005D49C871594800789021484358494018DB
:1018E000007A803858498871002407E0A0005749E1
:1018F0000858A100564A5050601CC4B255480078A0
:101900008442F3DB0E205049087200242EE0A1002F
:101910004C4A50585049FEF757FC0090FEF780FDA6
:10192000A1004B4A5158401A4C4988421CDAA10088
:10193000444A50584849FEF747FC0090FEF770FDB6
:10194000A100434A5158401A4449494288420BDD9C
:10195000A2003C4988584049FEF736FC0090FEF74B
:101960005FFDA100394A5050601CC4B2394800786C
:101970008442CCDB354800880004000E32494872AE
:10198000324800788872314880880004000EC8729E
:101990002E48007908732D4800890004000E487312
:1019A0002A48007A88730846407A002803D10846FE
:1019B000807A00280FD02448C07A002803D122481A
:1019C000007B002807D02048407B002806D11E4815
:1019D000807B002802D100201B4908721A4DAD1CE3
:1019E000FEF7AEFF03E028786D1CFEF779FF304666
:1019F000711ECEB20028F6D1FEF78CFFC7B2124896
:101A0000C77400BF164800780028FBD10021154894
:101A1000FEF7E0FF0C4813491C3988621420086265
:101A200001200F49087001210E48FEF7D3FF012263
:101A300080210D4800F0E8FAF8BD000021000020E8
:101A40006809002048100020CB000020541000201E
:101A500060100020EB00002000007A4470170000A6
:101A6000C40000201C0002400038014011201D4924
:101A700008601D4840681C49486008464068486046
:101A8000084640687F21C9038843174948600846D3
:101A900040680521C90408431349486008460068A6
:101AA0000121090608431049086000BF0E4800687C
:101AB0000121490608400028F8D00B4840688008FA
:101AC00080000949486008464068022108430649E9
:101AD000486000BF044840680C2108400828F9D13C
:101AE00070470000002002400010024070470000D4
:101AF0007FB5104804881AE0611E89000E4A5058CC
:101B0000FEF780FC054600220C4BFEF79BFB0022F3
:101B10000B4B01910090FEF7FDFB039102902146D3
:101B2000641E08A0039B029A00F02CFD00BF002C4D
:101B3000E2D17FBDF40000204812002000001040D8
:101B400000408F4025643A2566207573200D0A00F9
:101B5000042806D10649096904221143044A116187
:101B600005E00349096904229143014A1161704764
:101B700000E000E002480068401C0149086070472E
:101B8000EC00002010B51B480068012108431949EA
:101B900008600846406818490840164948600846E9
:101BA000006816490840134908600846006801218A
:101BB000890488430F490860084640683F210904AA
:101BC00088430C4948600846C06A00090001C862A1
:101BD0000846006BFF2154318843064908630846D4
:101BE000406B40084000486300208860FFF73EFFDC
:101BF00010BD0000001002400CB8FFF8FFFFF6FE19
:101C000010B58AB06846FFF7E7FB13490098FEF766
:101C10008DFA0446214611A000F0B4FC0E4901984B
:101C2000FEF784FA0446214611A000F0ABFC0A49F5
:101C30000198FEF77BFA044621460DA000F0A2FCB5
:101C400005490298FEF772FA044621460DA000F0FD
:101C500099FC0AB010BD000040420F005359534395
:101C60004C4B202020203D2025644D487A0D0A0051
:101C700048434C4B2841484229203D2025644D488B
:101C80007A0D0A0050434C4B2841504229203D20F8
:101C900025644D487A0D0A0010B501210A4800F06C
:101CA0007EF801280AD109490869804700210648C1
:101CB00000F094F86421044800F08EF801210248F5
:101CC00000F04FF810BD000000200040AC010020E3
:101CD00010B5002401211D4800F061F8012830D121
:101CE000002C03D004201A49886103E001208004FD
:101CF00017498861002C01D1012000E00020044632
:101D000001F084FB1348007813498870114800786B
:101D1000401C1049087041200F4908708820487005
:101D2000A0204872FF204871887100220C2001F029
:101D300064FF012200210C2001F074FF022001F059
:101D4000ABFE0121014800F00CF810BD001400406A
:101D5000000C0048C50000202B000020CA4302826E
:101D60007047CA4302827047002904D002880123C9
:101D70001A43028003E00288014B1A400280704738
:101D8000FEFF00000146486A704702460020138AA1
:101D90000B40002B01D0012000E00020704730B53F
:101DA0000246002000230024158A0D402B46958909
:101DB0000D402C46002B03D0002C01D0012000E068
:101DC000002030BD002A03D083890B43838102E0C9
:101DD00083898B4383817047C1627047416270473A
:101DE00000220288154B984206D001239B07984297
:101DF00002D0134B984203D1124B1A404B881A431E
:101E0000114B984203D0114B1A400B891A430280A0
:101E10004B68C3620B880385084B984208D00C4B73
:101E2000984205D00B4B984202D00B4B984201D1FF
:101E30008B7A03860123838270470000002C0140C7
:101E4000000400408FFF000000100040FFFC000075
:101E50000040014000440140004801407FB5044675
:101E60000D4601210802FFF797FA02946846858023
:101E700000218181C18001A90A48FFF7B1FF012239
:101E800041210848FFF79EFF132168460170022197
:101E9000417001218170FFF7E7F901210148FFF747
:101EA00063FF7FBD0020004010B52049204800F0AE
:101EB000BFF8002839D01E4800F07EF9C4B21D4892
:101EC00000880121C903084000282ED11948008844
:101ED0004910084000280DD00A2C03D000201549D5
:101EE000088022E0134800880121C90308431149F2
:101EF00008801AE00D2C07D10E48008801218903C3
:101F000008430C49088010E00A4800888004800CCF
:101F100009490C5407480088401C064908800846B7
:101F200000887F2801DD0020088010BD0501050024
:101F30000038014000000020A40200200162704728
:101F4000002904D0026801231A43026003E00268FA
:101F5000520852000260704700B589B00121480460
:101F6000FFF70AFA01218803FFF726FA0122092167
:101F7000C806FFF723F801220A210920C006FFF74F
:101F80001DF80120400201900221684601720121E2
:101F90004172002181720121C17201A90920C0068C
:101FA000FEF7C4FF01208002019001A90920C006AC
:101FB000FEF7BCFFE1204002039000200490059052
:101FC000069008900C20079003A90D4800F078F8BF
:101FD0000C490B48FFF7B2FF01220A49084800F0FC
:101FE0004EF801210648FFF7ABFF1B216846017040
:101FF000012141708170FFF737F909B000BD000081
:102000000038014005010500002A03D083680B4316
:10201000836002E083688B43836070470246002040
:10202000D3690B40002B01D0012000E00020704755
:1020300070B502460B4600240021002500201E0436
:10204000350ED9B201268E403146012D02D11668D7
:10205000314006E0022D02D15668314001E0966819
:1020600031401C0C0126A6403446D6693440002974
:1020700003D0002C01D0012000E0002070BDF8B595
:1020800003460024002600960025002018460E0472
:10209000340ECEB200960127009EB7403D46022C7A
:1020A00001D1001D02E0032C00D10830002A03D02A
:1020B00006682E43066002E00668AE430660F8BD7F
:1020C000F0B58BB004460D46002700200A9000268C
:1020D00020684008400020606668032109033046FC
:1020E00088430646A8680643666026682D48064071
:1020F000E968686808432969084306432660A668BA
:102100000321090230468843064668690643A660F3
:102110006846FFF761F92448844202D106980A9084
:102120000DE02248844202D107980A9007E0204837
:10213000844202D108980A9001E002980A9020682F
:102140000121C903084000280CD029680A9A5000D0
:10215000FDF7ECFF074629680A9A5000FDF7E6FFF5
:102160000E4609E029680A98FDF7E0FF074629684E
:102170000A98FDF7DBFF0E4628684008B04200D8F9
:102180007F1C20680121C9030840002806D03807B9
:10219000460F38460749084030430746A7810BB031
:1021A000F0BD0000F3E9FFFF0038014000440040AB
:1021B00000480040F0FF00000146888CC005C00DBB
:1021C0007047CA05D20D028570477047F8B50027E1
:1021D000002500200090DF48007890214843DE4928
:1021E0004018407A802858D1DA4800789021484336
:1021F000D9494018C679D748007890214843D64934
:102200004018007A80380002801986B20124D14833
:10221000007890214843D0494018802109588030E7
:102220004068CE4A11605060CA4800789021484307
:10223000C94940188778002E18D000200090C54862
:10224000007890214843C4494018807A00010099E1
:102250000843C0B20090BF48007890214843BE496F
:102260004018C07A00990843009077E0B948007898
:1022700090214843B8494018807AB9490880B54848
:10228000007890214843B4494018C07A0002B4490C
:1022900009884018B249088060E0AE480078902173
:1022A0004843AD494018407A812857D1A949097857
:1022B00090225143A84A891808460C30A74901F0DA
:1022C000C5FCA448007890214843A3494018C4792C
:1022D000A0480078902148439F494018007A0002A6
:1022E000001984B29B480078902148439A494018CD
:1022F000867A984800789021484397494018C07AD8
:1023000080380002801986B29248007890214843B4
:10231000914940188778002E0AD000BF00BF8D4831
:102320000078902148438C494018807C009015E04B
:10233000884800789021484387494018407C884964
:102340000880844800789021484383494018807C65
:10235000000283490988401881490880002E7ED1F7
:1023600080480068401C002801D17E4807607D48F5
:10237000006887421BD1601E00017B4940184480E1
:10238000601E000140188680601E00014018C78052
:10239000724801684068621E1201734BD218916046
:1023A000D060AA21601E00011A461152CFE000BF82
:1023B0006E4800780028FBD104206D494881012037
:1023C00088800220C8806B48008828214843433019
:1023D000674948806848088066480088088100F09E
:1023E00031FE6449087802F005F800BF5F480078C4
:1023F0000028FBD100216148007801F045FC002055
:102400005E49087040215848FDF7D3FE59480088BE
:102410002822504301465A48FDF7CBFE002055497B
:10242000088050480760601E00014F4940184480F2
:10243000601E000140188680601E00014018C780A1
:10244000464903C9621E1201474BD218D160906001
:10245000AA21601E00011A46115278E0FFE700250C
:1024600072E028206843464940188088B0422BD14A
:10247000282068434018C088B84225D128206843E6
:102480004018C078611E01228A401043C1B2282042
:1024900068433B4A8018C170304903C928226A4307
:1024A000374BD2180832631EDB00D21803C2282033
:1024B00068433349401880780099084328216943CC
:1024C0002F4A8918887041E0282068432C49401819
:1024D0008088002836D1282068434018868028202C
:1024E00068434018C780282068434018C078611EA0
:1024F00001228A401043C1B228206843204A801834
:10250000C170164903C928226A431D4BD2180832EC
:10251000631EDB00D21803C2BB2128206843184A7F
:1025200011522820684311464018807800990843CA
:1025300028216943891888700E480088401C0D497D
:10254000088003E0681CC5B20A2D8ADB00BF0020AA
:10255000F8BD0000210000206809002018000020BC
:10256000E0000020E400002078100020C4000020DB
:102570006C100020E8000020FBFB0000EA000020B7
:10258000B81000200FB410B503A9044B044A0298F8
:1025900000F0BCF910BC08BC04B01847893C000826
:1025A000A00200202021020C01D010211046020AB6
:1025B00001D010460839020901D01046091F8208CF
:1025C00001D01046891E420801D0881E7047081AA3
:1025D000704730B47446641E2578641CAB4204D343
:1025E000635D5B00E31830BC18471D46F8E702E066
:1025F00008C8121F08C1002AFAD17047704700208E
:1026000001E001C1121F002AFBD1704710B5002262
:1026100002212C2001F0B5FA022211462C2001F0F3
:10262000B0FA10BD10B504466D2209492E2001F004
:10263000A8FA002C05D0074A07492E2001F07FFA9E
:1026400004E0064A04492E2001F079FA10BD00008A
:102650000608000007060000061800000716000024
:1026600010B5002000F006F800220421362001F009
:1026700066FA10BD38B504466B46022200213620AA
:1026800001F060F82300FFF7A4FF0F12091B5B5B4A
:102690005B5B24325B5B3E454C555B00002168462A
:1026A00001704078FE2108406946487049E069465B
:1026B0000878FC210840012108436946087040E081
:1026C00069460878FC2108400221084369460870E1
:1026D00037E068460078B321084048210143684646
:1026E00001704078802108436946487029E06846B7
:1026F0000178B32001406846017040784106490ED8
:10270000684641701DE069464878022108436946E1
:10271000487016E069464878FD21084069464870CF
:102720000FE069460878CF21084020210843694618
:10273000087006E00121684601700321417000E045
:1027400000BF00BF6B4601220021362001F023FAB2
:1027500000AB013301221146362001F01CFA38BDCE
:1027600010B50E20FFF786FF0122D20306212D208F
:1027700001F0E5F9012000F081FC0120FFF77AFF6C
:1027800010BD70B50446A2B204212D2001F0D7F986
:10279000032206212D2001F0F4F9002206212D202C
:1027A00001F0EFF90A212D2000F0A5FF054628468B
:1027B00070BD0000F0B51FB484B007980699020DF3
:1027C000014314D04A484B491018484305140F9848
:1027D00001280E981CD0281A401C0024464E474958
:1027E000009401910290002814DA474227E00F98E4
:1027F000012443A3012808D0002104980F9A846083
:102800000360C260416009B0F0BD0E98C143F4E7B7
:102810004042E2E7074612E0F80707D02246334677
:1028200001990098FDF70EFD019100902246334674
:1028300010461946FDF706FD04460E467F10002F90
:10284000EAD10298019B0028009A0799069802DABB
:10285000FDF7F8FC01E0FDF75DFD04460E460022A1
:10286000284BFDF757FF03D80020C043014607E07F
:102870000022254B20463146FDF77AFEFDF72AFF60
:10288000102409E0002C0ADB0A220023FDF7E1FDF9
:10289000059B30321A55641E02460A43F2D11122BA
:1028A000641C059B121B1C190F9B012B03D00123D9
:1028B00008430ED10AE0084304D011200E900020F6
:1028C0000F9084E70E98151A6D1E0BE00E98824249
:1028D00002DD00236D1C03E0824201DA00236D1E3D
:1028E000002BEED004980F998260C16030C08AE757
:1028F00001FCFFFF104D0000000024400000F03FED
:10290000300000000000F0430000E03FFFB597B04A
:102910000646002518E2252877D100242746FD49E0
:10292000049400E00443761C32780120203A904061
:102930000842F7D130782A280ED00222307801469A
:102940003039092916D804990A23594330394018D7
:102950001443761C0490F1E7189802C8049118906B
:10296000002904DA01204003044348420490022075
:102970000443761C30782E2814D104200443707848
:10298000761C2A2809D11898761C80C8189009E06E
:102990000A214F43303FC719761C30780146303941
:1029A0000929F5D930786C2810D006DC4C281AD0CB
:1029B00068280ED06A2817D104E0742813D07A282A
:1029C00012D110E00120400504430CE0012109056B
:1029D00001E0032109050C437178814203D10120F4
:1029E00000052418761C761C3078119066280BD0D0
:1029F00013DC58287DD009DC00287BD04528F6D090
:102A00004628F4D047281AD1A5E118E0632835D02C
:102A1000642870D0652812D19DE170286CD008DC44
:102A20006728F1D069287BD06E280DD06F2806D199
:102A3000BAE073282ED0752871D0782859D01A9A08
:102A4000199990476D1C7EE16002400F022809D061
:102A500003280DD00428189801680DD00D60001DC2
:102A6000189070E11898EA1701680D604A60F6E75F
:102A7000189801680D80F2E70D70F0E718986A4623
:102A800001781172001D18900020507202A8009069
:102A9000012005E0189802C8189000200091C0435A
:102AA00061070DD5002101E00199491C0191B9424E
:102AB00012DA8142F8DB009A515C0029F4D10BE074
:102AC000002101E00199491C01918142FADB019A40
:102AD0000099895C0029F5D1019904981A9B471A3D
:102AE00021463846199A00F097FA0199401945187D
:102AF0000BE04FE02CE113E04EE0009800990078E5
:102B0000491C00911A9A199990470198401E01900A
:102B1000401CF2D1214638461A9B199A10E137E041
:102B20000A200021009001916002410F022907D084
:102B3000189A01CA1892C2179446032908D00AE0CD
:102B40001898C01DC108C90005C91891944607E02E
:102B500000B2C2179446042902D140B2C1178C4674
:102B600000226146944506DA0A460021404291411E
:102B70008C462D2102E0210504D52B216A461173D4
:102B8000012103E0E10701D02021F7E7029155E0A0
:102B90000A200AE0102008E0102000900021042004
:102BA00004430191082703E00820002101910090CF
:102BB0006002410F022907D0189A01CA1892002218
:102BC0009446032908D008E01898C01DC108C90020
:102BD00005C91891944603E080B2042900D1C0B21F
:102BE00000210291210729D51199702906D0009A58
:102BF0001021019B4A401A4305D00EE040216A464D
:102C00001173012108E06146014306D030216A4674
:102C100011731199517302210291009A0821019BAD
:102C20004A401A430AD16146014301D1610705D5E3
:102C300030216A46117301217F1E02911199582992
:102C400004D035A10E910DA90D910DE037A1F9E742
:102C50006146019B009AFDF7FCFB0E9B8C469B5C3A
:102C60000D9A521E0D92137061460143F0D10D98DA
:102C700005A9081A20300190600703D5012000043F
:102C8000844300E001270198874201DD381A00E003
:102C90000020019900904118029809180498401AE0
:102CA0000490E00306D421461A9B199A049800F078
:102CB000B3F94519002706E003A81A9AC05D1999CF
:102CC00090476D1C7F1C02988742F5DBE0030CD512
:102CD00021461A9B199A049800F09EF9451904E0C0
:102CE0001A9A3020199990476D1C0099481E00903F
:102CF0000029F5DC08E00D980D990078491C0D912C
:102D00001A9A199990476D1C0199481E0190002943
:102D1000F1DC63E1092801003031323334353637D4
:102D20003839616263646566000000003031323317
:102D300034353637383941424344454600000000B7
:102D400000F05AF94519761C3078002800D0E2E5E9
:102D500028461BB0F0BD600700D406271898C01D98
:102D6000C108C90048680A680831C30FDB07189119
:102D7000190001D09CA108E0210501D59BA104E028
:102D8000E10701D09AA100E09AA1430011985B08E5
:102D9000109165280CD006DC452809D046281DD0A6
:102DA000472841D141E0662818D067283CD13CE053
:102DB0000021112F01DB112000E0781C019100900F
:102DC00008A911A8FFF7F6FC139905910021119AA3
:102DD00015927F1C12980197009150E00120C007C6
:102DE00003900120019008A9009711A8FFF7E2FCC9
:102DF000139A149905920022119B00921298159330
:102E0000059A0192002901D0104602E0791C401871
:102E10000190381A01D5019804E04042401E00900C
:102E2000781C0190C01B029043E0012F00DA0127BB
:102E30000021112F01DD112000E0384601910090A2
:102E400008A911A8FFF7B6FC13990591119A002162
:102E5000129815920091019721070CD40599B94257
:102E600001DB019900E00191012904DD159A491E59
:102E7000515C302906D0B84201DA011D05DA012182
:102E8000029115E00199491EEDE7002805DC009943
:102E9000411800910199091A03E0019A411C9142DD
:102EA00000DD01910099401A401C02900120C007EA
:102EB0000390200706D402990198814202DB00208A
:102EC000C043029000206946C87707AF01210398EC
:102ED0000337C907884224D0022011902B2012907A
:102EE000039800280CDA404203902D20129007E04E
:102EF0000A210398FDF71AF930317F1E03903970CB
:102F00001199481E11900029F2DC03980028EFD196
:102F1000791E129808703078202108404530BF1E75
:102F2000387006A8C01BC01D0390109800780028B8
:102F300000D00120019941180298C0170918039880
:102F400009180498401A401E0490E00306D4214654
:102F50001A9B199A049800F05FF8451910980078A8
:102F6000002803D01A9A199990476D1CE00324D5C4
:102F700021461A9B199A049800F04EF845191CE056
:102F80000098002807DB00990598884203DD159812
:102F9000405C199901E0199930201A9A90470098DD
:102FA0006D1C401C00900298401E0290002804D125
:102FB0001A9A2E20199990476D1C0199481E01906C
:102FC0000029DDDC05E038781A9A7F1C19999047B2
:102FD0006D1C0399481E03900029F4DC21461A9BBE
:102FE000199A0498ACE600002D0000002B000000A8
:102FF0002000000000000000F8B5044600251E4631
:103000001746880404D405E039462020B0476D1CDB
:10301000641EF9D52846F8BDFFB50446002581B0E9
:103020001E46C80301D5302700E02027880404D5B8
:1030300005E038460399B0476D1C641EF9D5284653
:1030400005B0F0BD70B50B4C201F4088401C85B208
:10305000FDF776FC03E02078641CFDF741FC284670
:10306000691E8DB20028F6D1FDF754FC02490870A4
:1030700070BD000070100020EA00002010B504466A
:103080002046FDF773FE10BD002800D062B67047E1
:103090000120002800D072B67047000010B57D21D5
:1030A000890110480068FDF741F80446601E0E498A
:1030B000884201D901200CE0601E0C4948610021C2
:1030C000481EFEF709F900200849886107200861B9
:1030D0000020002801D000BFFEE70420C043FEF717
:1030E00037FD10BD0C010020FFFFFF0000E000E0F5
:1030F00000B585B001210846FEF75EF901214804BC
:10310000FEF73AF90120000303900021684601749C
:103110000221C1740321417403A90920C006FDF7EF
:1031200005FF0C210020FEF783FB01200003019026
:10313000002168460172082141720121817201A8B3
:10314000FDF7B0FE072168460170012141708170D2
:10315000FEF78AF805B000BDFEB504462578607913
:1031600040007E49085A01906078401EC6B2042D86
:1031700001D0072D01D1012000E000200090E0796E
:1031800000280AD17648406901218905084374491D
:1031900048610198C010019006E071484069012122
:1031A000890588436E494861207A6D49087208464E
:1031B0004069032109048843694948610846406918
:1031C000217A09040322120411400843644948612A
:1031D000084600214269042000F0C0FC61492E200D
:1031E000019A00F0ACFC3046FFF71CFA5E48405DE7
:1031F00080005E490A5807212B2000F0AFFC5A4896
:10320000405D5B490A5C0B212B2000F0BAFC594958
:1032100000980A5C0B21282000F0B3FC5248405D66
:10322000800055490A580C21282000F097FCE079CD
:10323000800052494018A1794900425A02212720B2
:1032400000F07DFC70004E490A5A0421272000F04E
:1032500076FCE079002805D164220621272000F0C1
:103260006EFC17E0A07804280AD11022062127203E
:1032700000F065FC10222621272000F082FC09E0E6
:1032800020220621272000F05AFC28222621272070
:1032900000F077FC30013B494018E1788900425842
:1032A0000821272000F05AFC6089002801D1364807
:1032B000608162892021272000F041FC33480C21E5
:1032C0000268232000F04AFC71003048001D425A79
:1032D0000421232000F033FCA079002806D0E079F7
:1032E0002B490A5C0021212000F04BFC2807000F2D
:1032F0002901F022114008436178890403229204D5
:1033000011400843A17949040122520411400843A5
:10331000217989051F229205114008436179C90668
:10332000C90EC906084307463A4600211F2000F08F
:1033300015FCA078617808430004E179490308434B
:103340000749C86008460021C268082000F006FC52
:10335000422200210D2000F014FCFEBDC0570008E1
:103360007012002004280000445700086457000829
:103370007C570008825700084C57000890570008F7
:103380009C570008A057000841100000845700080F
:103390008C57000810B50446224603211A2000F07D
:1033A000F0FB074840690121890708430449486147
:1033B000084600214269042000F0D0FB10BD000047
:1033C0007012002070B505460021042000F093F92A
:1033D0000C4908400446002D09D0FF21FF3120464A
:1033E0008843044628460840401C044301E0640822
:1033F00064000548446122460021042000F0AEFB31
:1034000070BD0000FFFF47F07012002070B5002172
:103410000E2000F070F90546FFF73AFE0446002240
:1034200011460E2000F09AFB402200210D2000F0F2
:10343000A8FB094A00210F2000F090FB00F06CFB74
:103440002A4600210E2000F089FB2046FFF71CFED3
:1034500000200249887670BDF8FF272470120020F2
:10346000F8B504460025002700203A4948748876BC
:1034700008838862C8620863486300F05DF93649D2
:10348000884201D08817F8BD00F0E4FA0020FFF769
:10349000F1F804220021242000F073FB1E20FFF726
:1034A00070F985B228122B4948720420FFF769F998
:1034B0000746F8B200280BD0022212212D2000F07E
:1034C00060FB2448008B012109030843214908833C
:1034D0000620FFF756F91F4908600720FFF751F94A
:1034E0001C494860E806C00E08740846007C0028A5
:1034F00001D1102008741749087C00F09DFAE007FC
:10350000C00F002809D0FFF72BF91248008B0121CA
:10351000C90208430F4908830CE00521362000F05A
:10352000D7F806460D48064032460521362000F001
:1035300006FB00BF0120FFF79DF800220A212C2086
:1035400000F01FFB0021042000F0D5F8014948617C
:10355000002098E7701200203001CADEFFFD000055
:1035600070B500210F2000F0C6F857490446C86125
:10357000012080032040002855D06F221202002134
:103580000F2000F0EBFA00214F481C300172102090
:1035900000F09EF80546AE05B60D4B48007A0028AF
:1035A00001D17606760E484806840120C0032840E3
:1035B000002807D044481C30007A012108434249C2
:1035C0001C310872404B223302220021112000F0EE
:1035D000B9F808202040002813D03B481C308079DF
:1035E0002021084000280CD1082200210F2000F0E3
:1035F000B5FA3548C069082188433349C8610020BD
:1036000088763148C06A002803D02F48C16A1C3030
:1036100088472D48407C002804D0012203210D203A
:1036200000F0AFFA00BF80202040002818D0F82218
:1036300000210F2000F092FA08202040002807D037
:103640002148807E002803D0FFF7E0FE00F0FAF862
:103650001D48806A002803D01B48816A1C308847B7
:10366000112040042040002814D0012252040021DF
:103670000F2000F073FA002013498876FFF7C6FE8A
:1036800000F0E0F81048006B002803D00E48016BF2
:103690001C3088470D482040002813D00B4A0021D9
:1036A0000F2000F05BFA002007498876FFF7AEFE96
:1036B00000F0C8F80448406B002803D00248416B72
:1036C0001C30884770BD0000701200200090052457
:1036D000F8B504460D460026A9B2A0B26B460222F8
:1036E00000F030F868464078010268460078081813
:1036F00086B23046F8BDF8B505460E460027B1B291
:10370000A8B26B46042200F01DF8032404E038023E
:103710006946095D4718641E002CF8DA3846F8BD82
:1037200038B504460D46A9B2A0B26B46012200F09E
:1037300009F86846007838BD10B500210846FFF743
:10374000DAFF10BDFFB581B006460C4617460025CE
:10375000002C04D129466D1C684646541AE04020CE
:103760003043C2B229466D1C684642547F2C04DCAB
:1037700028466D1C69460C540CE0E0B280210843D9
:1037800029466D1C6A4650546004020E28466D1C82
:1037900069460A54A8B23A466946049B00F08CFC7C
:1037A00005B0F0BD70B504460D46164623462A46C0
:1037B00031461120FFF7C6FF70BD10B50446234601
:1037C000052200211520FFF7BDFF10BD10B50446EE
:1037D0002346052200211720FFF7B4FF10BD70B566
:1037E000044604202040002801D100F095F9FF256F
:1037F0000135E007C00F002801D0680005432A46C4
:1038000000210D2000F09BF9E007C00F002817D021
:1038100003210F20FFF784FF0646082030400028D0
:103820000ED0FFF7F3FD02202040002805D1FF2233
:10383000013200210D2000F082F90020C04370BD4C
:103840000020FCE710B5E0220321362000F099F9B2
:10385000F0220321362000F094F910BD10B5044683
:1038600022460021032000F06AF910BD10B5034C78
:10387000A062E1622263636310BD00007012002049
:1038800010B50446224601210A2000F067F910BD58
:1038900010B50446234608220021012000F07BF9E0
:1038A00010BDF8B504460E46FFF7F2FB07460021AF
:1038B0000E20FFF720FF0546002E03D028462043A8
:1038C000054602E02846A04305462A4600210E2070
:1038D00000F044F93846FFF7D7FBF8BD70B5054650
:1038E000E807C00F00283BD000212620FFF703FF88
:1038F00004460F21890220468843044605208002A1
:10390000044322460021262000F028F90021362019
:10391000FFF7F1FE044621208004044322460021E3
:10392000362000F01BF9FF24113402202840002823
:1039300002D00F200004044322462821362000F044
:103940000DF902202840002819D00F210904204633
:103950008843044622462821362000F0FFF80EE076
:1039600000212620FFF7C7FE04460F2189022046CA
:103970008843044622460021262000F0EFF870BD5F
:1039800010B5044622460221032000F0D8F810BDED
:1039900070B5054600211A20FFF7ADFE0446240D40
:1039A00024052803000B0443224600211A2000F0BE
:1039B000D5F870BD10B50446224602492E2000F00D
:1039C000BEF810BD0418000070B5044603210420A1
:1039D000FFF7A6FE0546002C13DD224600210C2031
:1039E00000F0ADF8102005430E4840690121090799
:1039F00008430C4948612A460321042000F0C1F81D
:103A00000EE010212846884305460648406909060D
:103A10008843044948612A460321042000F0B1F894
:103A200070BD00007012002010B50446224600212F
:103A3000182000F084F810BD70B50446E006C00EF2
:103A40006021084305462A460E212B2000F099F8F4
:103A500070BD000010B5FEF703FE002211462C20B9
:103A600000F06DF8002206212C2000F08AF8FEF705
:103A7000CDFD00220321362000F083F80120FFF75E
:103A8000FDFAF0220321362000F07BF800200149E6
:103A9000887610BD70120020F8B504460026002577
:103AA000002702202040002808D080252A46002137
:103AB0000D2000F066F8012016498876E007C00F57
:103AC00000281DD0062005432A4600210D2000F0C5
:103AD00058F803210F20FFF7FBFD07468120C000A7
:103AE0003840002801D1002611E040252A46002157
:103AF0000D2000F046F8002006498876461E06E0B4
:103B0000022005432A4600210D2000F03AF83046F5
:103B1000F8BD00007012002010B503210F20FFF740
:103B2000FFFD04468020204040212140490088427A
:103B300004D0012203210D2000F023F810BDF8B5B8
:103B400005460E4614466846047021124170B1B213
:103B5000A8B26B46022200F01EF8F8BDF8B5064682
:103B60000F461446002503E069464C55240A6D1C97
:103B7000042DF9DBB9B2B0B26B46042200F00BF8A9
:103B8000F8BD37B504460D46A9B2A0B202AB01227A
:103B900000F001F83EBDFFB581B006460C46174661
:103BA0000025002C07D180203043C2B228466D1C6E
:103BB00069460A5419E0C0203043C2B228466D1C41
:103BC00069460A547F2C03DC28466D1C0C540CE01B
:103BD000E0B28021084329466D1C6A4650546004B7
:103BE000020E28466D1C69460A54A8B23A46694638
:103BF000049B01F053FD05B0F0BD70B504460E46C0
:103C00001546281901218902884207DCA21E334685
:103C100029460920FFF7BFFF002070BD0020C043E8
:103C2000FBE70000F8B504460D4616460648C06896
:103C30002043A9050843F103084307463A460021FB
:103C40000820FFF78BFFF8BD7012002030B5024648
:103C500000250D604D600B46002003E0145C1C70D5
:103C60005B1C401C0528F9DB30BD70B50146002007
:103C700006E00A541E06140A34431B0A2246401C5E
:103C80000528F6DB70BD000070B504460D4600BF88
:103C900040210948FEF7C2F90028F9D0E1B20648F0
:103CA000FEF78FFA00BF40210348FEF7B7F900285E
:103CB000F9D0204670BD0000003801407CB50446B4
:103CC00000200190012504266B46324601A92846B2
:103CD00000F0F2F96846015D01A0FEF753FC7CBDDF
:103CE00025640D0A0000000070B5054600210F2074
:103CF000FFF701FD0446214601A0FEF743FC70BD1D
:103D00003078256C780D0A007CB500210C460D46F4
:103D10006846FFF752FD042608E0220E28021043F1
:103D2000240205466846805D0443761E002EF4DAC0
:103D3000204629467CBD7CB500210C460D466846D0
:103D4000FFF744FD042608E0220E28021043240257
:103D500005466846805D0443761E002EF4DA204650
:103D600029467CBD10B50348016803A0FEF70AFC94
:103D700010BD0000EC00002074696D653D256400F5
:103D80000120014908707047F6000020FCF7EEFDA5
:103D9000FDF780F9FFF782F9FEF7DEF85248416837
:103DA0003020884700F0C0FA00F0CCF9FDF77CFC29
:103DB00000F0D8F8FDF7A2F9002803D04BA0FEF7D9
:103DC000E1FB02E04EA0FEF7DDFB0120FFF748FB20
:103DD000401C002804D14FA0FEF7D4FB00BFFEE733
:103DE000FFF786F9FFF754F9044600F075FA4D48DD
:103DF000FFF7B2F90120FFF771FD4B4800F048F9D9
:103E00002046FFF741F94948FFF7D4FD4748FFF73F
:103E10000BFE474A00210F20FFF7A0FE0121454875
:103E2000FFF73FFD444B454A45494648FFF71EFD15
:103E300045480088FFF7A4FD4448FFF729FD4448A2
:103E40000088FFF70BFD1820FFF7BCFA0820FFF7EA
:103E5000A1FA0020FFF7B8FD3E490620FDF7ECF877
:103E6000FCF724FE0020FFF7BAFC3BE0FDF7E0F88A
:103E700034E0FDF7DDF838480078902148433749B1
:103E80004018407A2B2810D004DC102813D01A28B0
:103E900014D10DE0802802D081280FD102E0FEF776
:103EA00095F90CE0FEF792F909E0FCF7B9FC06E0A1
:103EB000FDF7DEFC03E0FCF74DFE00E000BF00BFB5
:103EC0000A2125480078401CFCF746F9C8B222496F
:103ED000087023480078401E214908702048007867
:103EE0000028C6D1C2E70000AC01002032344C30BB
:103EF00031206E6F742065786973740D0A000000BC
:103F000032344C303120636865636B206F6B0D0A6F
:103F100000000000494E4954204641494C45440D9B
:103F20000A000000AC000020613500086F4000006E
:103F30000040800080D0232499410008CD42000831
:103F4000A541000801450008B8000020BA00002083
:103F5000C20000207102000021000020680900203A
:103F60002200002000B585B001210846FDF724FAA3
:103F700001218804FDF700FA0B210120FDF758FC10
:103F80000120C00203900021684601740121C17420
:103F900003A90F48FCF7CAFF0B210120FDF748FCDD
:103FA0000120C00201900021684601720C2141727B
:103FB0000121817201A8FCF775FF07216846017095
:103FC0000321417001218170FDF74EF905B000BD5C
:103FD0000004004870B51125002638202649C87015
:103FE0000120087125480078902148432449401851
:103FF000C0792149C871214800789021484320495F
:104000004018007A80381C49887100200872487274
:104010008872C8720873487388738C1CFCF790FC14
:1040200003E02078641CFCF75BFC2846691ECDB2D7
:104030000028F6D1FCF76EFCC6B20F48C67400BF6C
:10404000104800780028FBD100210F48FCF7C2FC83
:1040500009480D491C398862142008620120094969
:10406000087001210848FCF7B5FC012280210748AF
:10407000FDF7CAFF70BD0000CB000020210000202A
:1040800068090020C40000201C00024000380140E4
:1040900001490860704700000400002070B5054623
:1040A000FFF74AFB0446214601A0FEF76BFA70BDFC
:1040B000256C780D0A000000FFB581B006460F465A
:1040C0001D460024FEF7E4FF0090012109031B4870
:1040D000FCF7A0FF00BF0FE0395D1948FDF7A2FB18
:1040E00000BF01211648FDF7A9FA0028F9D01448AD
:1040F000FDF788FB2870641CB442EDDB00240FE060
:1041000000210F48FDF78EFB00BF01210C48FDF791
:1041100095FA0028F9D00A48FDF774FB2855641C6D
:1041200003988442ECD30098FEF7AEFF0121090307
:104130000248FCF771FF002005B0F0BD0004004804
:10414000003800401CB50220009001216846017132
:1041500003214171002181710221C17169460D481D
:10416000FCF7E4FE02210B48FCF754FF0120FCF7AA
:10417000FDFD02200090002168460171032141717C
:104180000021C17169460348FCF7D0FE0520FCF709
:10419000EDFD1CBD0008004810B504460020FFF7E7
:1041A0001EFB10BD70B504460026A5887F2D7BDC64
:1041B000A079022809D1E079002806D101203B49E5
:1041C00008700020FFF70BFB6EE008212068084014
:1041D000002821D0002236490520FFF70EFD0022DD
:1041E00011460520FFF71EFD00BF0020FFF754FC1D
:1041F0000028FAD100BF00210F20FFF77CFA8021B0
:1042000008400028F7D0802200210F20FFF7A6FCED
:10421000FFF7FCF8FFF716FB012026490870264837
:10422000007800280AD02549097890225143244A71
:10423000881800222946FFF7B5FA35E021480078B2
:104240000A282CDC20490978902251431C4A8818FE
:1042500000222946FFF7A6FA1B4800789021484320
:1042600017494018407A80280BD1FFF74DFD164AB8
:10427000127890235A43124BD218802398508032E0
:1042800051600A2110480078401CFBF765FFC8B256
:104290000D4908700B480078401C0A49087000203E
:1042A00004490870FFF79BFA70BD0000240000204D
:1042B000C600002026000020280000202100002049
:1042C0006809002022000020200000200121014A6E
:1042D000117070472500002000B585B000211148FD
:1042E000FDF79EF9002168460180FF2105314180DC
:1042F0000721090281800021C18001810121490239
:104300004181102181810021C181072101826946FB
:104310000448FDF79DF901210248FDF781F905B038
:1043200000BD00000038004000B587B001218804BE
:10433000FDF722F801218803FDF72EF800220D2158
:104340002A48FCF73BFE00220E212848FCF736FEE7
:1043500000220F212548FCF731FE07204003009082
:1043600002216846017103214171002181710121FF
:10437000C17169461D48FCF7D9FD002168460181DD
:10438000FF21053141810721090281810021C1817D
:104390000182012149024182382181820021C182AA
:1043A0000721018302A91248FDF752F901210903EF
:1043B0000F48FDF72DFA01210D48FDF731F90120D5
:1043C0000003009001216846017103214171002121
:1043D00081710221C17169460448FCF7A7FD0121E2
:1043E00009030248FCF718FE07B000BD00040048AE
:1043F0000038004010B504460B480C49886220463E
:10440000282148434C3009490862012008490870B6
:10441000012106481C30FCF7DDFA01228021054805
:10442000FDF7F2FD10BD00006C10002000000240FE
:10443000C40000200038014000B585B014220CA152
:104440006846FBF79DFEFEF7E1FF00226946132058
:10445000FFF7D3FB012200211320FFF7E3FB09A0A4
:10446000FEF790F80220FFF717FB05B000BD000033
:10447000618800CADE01000200A10200AC2E9D7D11
:104480003D0000007465737466756E312065786553
:104490006375746564210D0A0000000000B585B0E5
:1044A00014220CA16846FBF76BFEFEF7AFFF00225B
:1044B00069460C20FFF7A1FB012200210C20FFF729
:1044C000B1FB09A0FEF75EF80220FFF7E5FA05B0A0
:1044D00000BD0000418800CADEFFFF0100A000000F
:1044E000AC2E9D7D3D0000007465737466756E3260
:1044F000206578656375746564210D0A000000000D
:104500000121014A117070472300002010B50446B4
:1045100001A0FEF737F810BD436869702077696C19
:104520006C206578706C6F646520696E2033207331
:10453000656373212121000030B595B0054613ABAA
:1045400012AA09A9284600F055FA0446002C02D008
:10455000204615B030BD0020149027E0224909689C
:1045600010AA127CD200891813AB11AA486801A9BD
:1045700000F040FA0446002C01D02046E9E709A9E2
:1045800001A800F0E6FC00280BD110A80179007A00
:10459000814201DD0220DCE710A8007C1249887509
:1045A0000AE010A8007C401CC1B214910E48007DA6
:1045B00010A9097C8842D1DC00BF0B48007D10A9FE
:1045C000097C884201D10420C3E714A9284600F0E1
:1045D000FDFA0446002C01D02046BAE710A8007C62
:1045E000014948750020B4E7AC010020F0B59DB04A
:1045F000A648847D007DA04201DC1DB0F0BDA3492A
:104600000968E200891809AB0AAA48680BA900F0FA
:10461000F1F90BA99EA0FDF7B5FF002645E09B48E8
:10462000008B0121B140084000281BD022219AA014
:10463000FDF7A8FF304600F051FB9449243147189C
:10464000394696A0FDF79EFF222193A0FDF79AFF21
:10465000304600F043FB8D4924314018B10013AAC5
:10466000505018E0304600F039FB88492431085892
:10467000B10013AA50508548C07D002805D1B00074
:10468000115887A0FDF77EFF05E0B00013AA11586E
:1046900084A0FDF777FF08A8007A401EB04202D040
:1046A00082A0FDF76FFF701CC6B208A8007A864290
:1046B000B5DB7FA0FDF766FF00F05EFB7348407D31
:1046C0000300FDF786FF0B070E161F2A3746586CAE
:1046D0008299B1006D490968E20088588047054613
:1046E000A2E06A4A1268E300D15813988847054649
:1046F0009AE0664B1B68E700DA59149913989047C3
:10470000054691E061490968E700CB59159A14996B
:10471000089113989847054686E05C490968E700C8
:10472000C959079114A90EC90891079F1398B84752
:10473000054679E01798554B00901B68E700DB5958
:104740000793169B0893079F13A807C8B847054609
:104750006AE0189917984D4A019100901268E30099
:10476000D758169A0892159A0792089B149913988D
:10477000B847054658E0189A19991798019202917E
:104780000090424A1268E700D2590792169B159A88
:104790000892079F14991398B847054644E0189B60
:1047A000179A19991A980193009202910390374A27
:1047B0001268E700D2590792169B159A0892079F34
:1047C00014991398B84705462EE0199B1B9A18991F
:1047D0001A980293049201910390179800902B4825
:1047E0000068E100475814A80DC808901398079076
:1047F0000899B847054617E01A9B1B9A1C99199807
:1048000003930492059102901899179801910090D2
:104810001E480068E700C059079013A80FC8089009
:10482000079FB847054600BF00BF00F067FA08A819
:10483000007901280DD11548C07D002804D12946F2
:104840001CA0FDF79FFE07E029461CA0FDF79AFE7D
:1048500002E019A0FDF796FE0C48E030007B00282E
:1048600012D00A498031086F0A21FBF75FFC0F461E
:1048700006498031086F0A21FBF758FC3A46014689
:10488000089011A0FDF77EFE00BFB6E6AC01002047
:104890000D0A257328000000256300002573000021
:1048A000256C750030582558000000002C000000D1
:1048B000290000003D256C753B0D0A003D30582550
:1048C000583B0D0A0000000046756E6374696F6EF8
:1048D0002052756E2054696D653A25642E25316429
:1048E0006D730D0A00000000F0B503461546002068
:1048F0000022002600245CE01F782C2F02D1002C1F
:1049000000D101221F78292F02D01F78002F02D159
:10491000002C00D14EE0002E36D11F78302F02DB64
:104920001F78392F11DD1F78612F02DB1F78662F6A
:104930000BDD1F78412F02DB1F78462F05DD1F7826
:10494000582F02D01F78782F0DD1002A00D031E0E7
:104950001F78612F03DB1F78203F0F7001E01F7865
:104960000F70491C22E01F78222F05D1002A00D0A9
:1049700020E00126012419E01F78202F16D01F788F
:104980002C2F13D0FF2615E01F78222F00D10024F2
:10499000002A00D00EE0002C08D01F785C2F02D136
:1049A0005B1C471CF8B21F780F70491C471CF8B2FB
:1049B0005B1CA1E700BF00270F702E70F0BD10B583
:1049C0000446002010700BE020780870641C491C1D
:1049D0001078401C10701078984201DB012010BD47
:1049E0002078202802D020780028EDD100200870FF
:1049F00000BFF4E7FFB587B00027002005900490C2
:104A000001200390002000900025079C1EE02078E4
:104A1000202817D06806400E052813DA002D01D192
:104A2000802005436806400E042803D120782A28F8
:104A300000D00EE020786906490E01AA5054681C87
:104A4000C5B202E0852D00D103E0641C2078002867
:104A5000DDD100BF002D12D000206906490E01AA49
:104A6000505458A101A800F074FA002803D1002185
:104A70000A98017002E001210A98017000250020C7
:104A80000690079C14E0641C0698401CC0B2069077
:104A90002078202802D020782A2809D1204600F04A
:104AA000E5F90646282E03D02A2E01D00698059057
:104AB0002078282802D020780028E4D1079C059887
:104AC000002802D00598401C2418002006900026DB
:104AD0005EE02078002802D10120069059E020787D
:104AE000282804D1002E02D1781CC7B217E0207804
:104AF00029280BD1002E09D1002F02D0781EC7B271
:104B000001E001200690002F09D142E02078222800
:104B100005D1002E01D1012000E000200646002F23
:104B200009D12078202832D021780898017008987F
:104B3000401C08902BE020782C2804D10120039001
:104B4000681CC5B216E02078202813D020782828C9
:104B500010D0002D0AD10098052807DA217801AA83
:104B6000009811540098401CC0B200900398401C5B
:104B7000C0B20390012F0AD10398022807D10398ED
:104B8000401CC0B203900498401CC0B20490641C46
:104B90009FE700BF049801280AD1002101AA0098CC
:104BA000115408A101A800F0D4F9002800D1049004
:104BB00009990498087000210898017006980BB0B4
:104BC000F0BD0000766F696400000000F0B5B7B07A
:104BD00005460F460024002604E000213E4881558A
:104BE000701CC6B20A2EF8DB06E06D1C287800287F
:104BF00002D1012037B0F0BD28782828F5D16D1CEE
:104C000064E036AA01A92846FFF76EFE0646AD19F4
:104C100030A8007E002804D0012829D0FF284DD1DB
:104C20004AE068460079002821D035A901A800F0A3
:104C300028F90646002E01D00220DBE7204600F0CE
:104C40004DF825490A31359A0A5008462438008B18
:104C50000121A140884320491A39088304211E48B4
:104C60000155601CC4B20A2C01DD0320C2E725E017
:104C700001A800F08CF9401CC0B23490204600F02E
:104C80002DF815490A3140180146009001A800F09E
:104C900072F911481A38008B0121A14008430E49CE
:104CA0001A3908831A3134980855601CC4B20A2C8A
:104CB00001DD03209EE701E002209BE700BF28788A
:104CC000292802D02878002800D100E099E700BF09
:104CD0003C7000208EE70000C60100200246002044
:104CE000002105E0044B5B5C1B18D8B24B1CD9B209
:104CF0009142F7DB70470000C601002010B501218A
:104D00000A48FDF742F8012805D10948006F094912
:104D10004118074801670548FDF734F80449096F51
:104D2000411803480167006F10BD000000200040DB
:104D30002C020020FFFF000010B50446204664222C
:104D40005043401E81B27D20C000FDF787F801204E
:104D50000149C87510BD0000AC01002010B5024625
:104D6000012002E00346534318460B464C1EE1B2B5
:104D7000002BF7D110BD000010B501210748FCF74A
:104D8000EDFF07490548FDF727F800210348FDF727
:104D900025F800210348016710BD000000200040F5
:104DA000FFFF00002C02002070B51F480088012181
:104DB000C9030840002835D01B48057800201B494E
:104DC00048551B488168194888470446002C03D180
:104DD0001749C868804722E0144800F0E5F8054606
:104DE000012D00D02C46002C19D0012C06D0022C0D
:104DF00008D0032C0AD0042C10D10BE00DA0FDF735
:104E0000C1FB0BE00EA0FDF7BDFB07E00FA0FDF717
:104E1000B9FB03E010A0FDF7B5FB00BF00BF002009
:104E20000149088070BD000000000020A40200209D
:104E3000AC010020BAAFCAFDB4EDCEF3210D0A00DB
:104E4000B2CECAFDB4EDCEF3210D0A00B2CECAFD3A
:104E5000CCABB6E0210D0A00CEB4D5D2B5BDC6A507
:104E6000C5E4B5C4BAAFCAFD210D0A000146491C0C
:104E700000E0491C0878202801D10029F9D10878E0
:104E80007047FCB507460E4600250A2000903C46B8
:104E9000002030601FE02078392802DC207830289C
:104EA0000ADA2078462802DC2078412804DA2078C3
:104EB000582809D1012D07D12078412801DB102085
:104EC0000090681CC5B205E02078002800D103E0FE
:104ED0000120FCBD641CDEE700BF3C4600981028A2
:104EE0000FD1032D01DA0220F3E72078302806D114
:104EF0006078582803D1A41CA81EC5B205E0032081
:104F0000E7E7002D01D10420E3E71EE0002D01D0EA
:104F1000681EC5B22078392806DC2078302803DBEB
:104F200020783038019002E0207837380190294607
:104F30000098FFF713FF019948433168401830602B
:104F4000641C2078002800D100E0DFE700BF0020CB
:104F5000BFE702460BE010780B78984201D00120A1
:104F600070471078002800D102E0521C491CF2E77B
:104F700000BF0020F4E707E002780A700278002AF8
:104F800000D102E0401C491CF6E700BF7047014613
:104F9000002006E00A78002A00D103E0421CD0B2CB
:104FA000491CF7E700BF704710B58CB004461E23BC
:104FB0000BAA03A92046FFF702FD009000980028E5
:104FC00002D001200CB010BD08A8007B24180021DD
:104FD0000B910FE008A8007B80003F4A115803A8FE
:104FE000FFF7B7FF002800D108E008A8007B401CAD
:104FF000C1B20B9108A8007B0728EBD300BF08A81B
:10500000007B0300FDF7E5FA0705063D5F66656472
:10501000630000BF31A0FDF7B5FA31A0FDF7B2FA89
:105020003FA0FDF7AFFA4EA0FDF7ACFA5CA0FDF78C
:10503000A9FA6BA0FDF7A6FA79A0FDF7A3FA86A05E
:10504000FDF7A0FA8BA0FDF79DFA90A0FDF79AFA64
:1050500094A0FDF797FA99A0FDF794FA9EA0FDF7AA
:1050600091FAA4A0FDF78EFAB0A0FDF78BFABDA0CF
:10507000FDF788FAC8A0FDF785FAD4A0FDF782FAFB
:105080009EE216A0FDF77EFAE0A0FDF77BFA002075
:105090000B900EE0ED48026808A8007BC0001018D5
:1050A0004168EBA0FDF76EFA08A8007B401CC1B276
:1050B0000B91E648007D08A9097B8842EADC07A03D
:1050C000FDF760FA7CE205A0FDF75CFAC4E175E249
:1050D00047E219E2EBE10000200100200D0A000088
:1050E0002D2D2D2D2D2D2D2D2D2D2D2D2D2D2D2DF0
:1050F0002D2D2D2D2D2D2D2D55534D4152542056F6
:10510000332E312D2D2D2D2D2D2D2D2D2D2D2D2DC4
:105110002D2D2D2D2D2D2D2D2D2D2D200D0A000069
:105120002020202055534D415254CAC7D3C9414C69
:1051300049454E54454BBFAAB7A2B5C4D2BBB8F639
:10514000C1E9C7C9B5C4B4AEBFDAB5F7CAD4BBA507
:10515000BDBBD7E9BCFE2CCDA8B9FD200D0A0000CF
:10516000CBFC2CC4E3BFC9D2D4CDA8B9FDB4AEBF2B
:10517000DAD6FACAD6B5F7D3C3B3CCD0F2C0EFC3F0
:10518000E6B5C4C8CEBACEBAAFCAFD2CB2A2D6B468
:10519000D0D02ED2F2B4CB2CC4E3BFC90D0A00008C
:1051A000D2D4CBE6D2E2B8FCB8C4BAAFCAFDB5C41B
:1051B000CAE4C8EBB2CECAFD28D6A7B3D6CAFDD77B
:1051C000D62831302F3136BDF8D6C629A1A2D7D680
:1051D000B7FBB4AEA1A2BAAFCAFDC8EB0D0A00007E
:1051E000BFDAB5D8D6B7B5C8D7F7CEAAB2CECAFD02
:1051F000292CB5A5B8F6BAAFCAFDD7EEB6E0D6A74A
:10520000B3D63130B8F6CAE4C8EBB2CECAFD2CB280
:10521000A2D6A7B3D6BAAFCAFDB7B5200D0A000013
:10522000BBD8D6B5CFD4CABE2ED0C2D4F6B2CECA61
:10523000FDCFD4CABEBDF8D6C6C9E8D6C3B9A6C488
:10524000DC2CD0C2D4F6BDF8D6C6D7AABBBBB9A653
:10525000C4DC2E0D0A000000BCBCCAF5D6A7B3D62C
:105260003A7777772E6F70656E6564762E636F6D13
:105270000D0A000055534D415254D3D037B8F6CFE4
:10528000B5CDB3C3FCC1EE3A0D0A00003F3A202071
:1052900020202020BBF1C8A1B0EFD6FAD0C5CFA204
:1052A0000D0A000068656C703A202020BBF1C8A18F
:1052B000B0EFD6FAD0C5CFA20D0A00006C697374A6
:1052C0003A202020BFC9D3C3B5C4BAAFCAFDC1D0EC
:1052D000B1ED0D0A0A00000069643A202020202068
:1052E000BFC9D3C3BAAFCAFDB5C44944C1D0B1ED3B
:1052F0000D0A0A006865783A20202020B2CECAFD47
:105300003136BDF8D6C6CFD4CABE2CBAF3B8FABF70
:10531000D5B8F12BCAFDD7D6BCB4D6B4D0D0BDF821
:10532000D6C6D7AABBBB0D0A0A0000006465633A63
:1053300020202020B2CECAFD3130BDF8D6C6CFD451
:10534000CABE2CBAF3B8FABFD5B8F12BCAFDD7D66E
:10535000BCB4D6B4D0D0BDF8D6C6D7AABBBB0D0A54
:105360000A00000072756E74696D653A312CBFAA2F
:10537000C6F4BAAFCAFDD4CBD0D0BCC6CAB13B309C
:105380002CB9D8B1D5BAAFCAFDD4CBD0D0BCC6CA1F
:10539000B13B0D0A0A000000C7EBB0B4D5D5B3CCC1
:1053A000D0F2B1E0D0B4B8F1CABDCAE4C8EBBAAF2C
:1053B000CAFDC3FBBCB0B2CECAFDB2A2D2D4BBD828
:1053C000B3B5BCFCBDE1CAF82E0D0A002D2D2D2D64
:1053D0002D2D2D2D2D2D2D2D2D2D2D2D2D2D2D2DFD
:1053E0002D2D2D2D2D2D414C49454E54454B2D2D08
:1053F0002D2D2D2D2D2D2D2D2D2D2D2D2D2D2D2DDD
:105400002D2D2D2D2D2D2D200D0A00002D2D2D2D76
:105410002D2D2D2D2D2D2D2D2D2D2D2D2D2D2D2DBC
:105420002D2D2D2D2DBAAFCAFDC7E5B5A52D2D2DDE
:105430002D2D2D2D2D2D2D2D2D2D2D2D2D2D2D2D9C
:105440002D2D2D2D2D2D2D2D200D0A00AC010020F0
:1054500025730D0A000000005BA0FDF793F8002003
:105460000B901AE068490A6808A9097BC90051181D
:1054700001AB02AA486803A9FFF7BCFA62480168B9
:1054800008A8007BC0000A5803A960A0FDF77AF8BD
:1054900008A8007B401CC1B20B915B48007D08A9A5
:1054A000097B8842DEDC5EA0FDF76CF888E05CA03A
:1054B000FDF768F80BAA03A92046FFF715FA08A81C
:1054C000007B00281AD1694603A8FFF7DAFC0B908D
:1054D00008A9087B002804D152A00099FDF752F8D2
:1054E0000EE008A8007B042801D002206AE550A045
:1054F000FDF748F801204449C87501E0022061E544
:1055000047A0FDF73FF85BE045A0FDF73BF80BAA8D
:1055100003A92046FFF7E8F908A8007B00281AD164
:10552000694603A8FFF7ADFC0B9008A9087B00288B
:1055300004D144A00099FDF725F80EE008A8007BEF
:10554000042801D002203DE541A0FDF71BF8002012
:105550002D49C87501E0022034E531A0FDF712F8AD
:105560002EE02FA0FDF70EF80BAA03A92046FFF7A7
:10557000BBF908A8007B00281AD1694603A8FFF7E9
:1055800080FC0B9008A9087B00280FD10098C1B2BD
:105590001D48E0300173007B002803D031A0FCF7E8
:1055A000F1FF07E036A0FCF7EDFF03E0022009E57C
:1055B000022007E51AA0FCF7E5FF01E0012001E564
:1055C00000BF0020FEE400002D2D2D2D2D2D2D2DB2
:1055D0002D2D2D2D2D2D2D2D2D2D2D2D2D2D2D2DFB
:1055E0002DBAAFCAFD204944202D2D2D2D2D2D2D56
:1055F0002D2D2D2D2D2D2D2D2D2D2D2D2D2D2D2DDB
:105600002D2D2D2D200D0A00AC01002025732069C1
:10561000642069733A0D0A3058253038580D0A0055
:105620000D0A00004845583A305825580D0A000028
:105630003136BDF8D6C6B2CECAFDCFD4CABE210D12
:105640000A0000004445433A256C750D0A0000002D
:105650003130BDF8D6C6B2CECAFDCFD4CABE210DF8
:105660000A00000052756E2054696D652043616C1C
:1056700063756C6174696F6E204F4E0D0A000000F7
:1056800052756E2054696D652043616C63756C6161
:1056900074696F6E204F46460D0A0000FFB581B059
:1056A00005460E4617460024FDF7F2FC0090012146
:1056B00009031A48FBF7AEFC00BF0EE0315D184845
:1056C000FCF7B0F800BF01211548FBF7B7FF002831
:1056D000F9D01348FCF796F8641CAC42EEDB0024CA
:1056E0000FE00498015D0E48FCF79CF800BF012113
:1056F0000B48FBF7A3FF0028F9D00948FCF782F814
:10570000641CBC42EDD3012109030448FBF784FC6F
:105710000098FDF7B9FC002005B0F0BD000400487A
:1057200000380040418800CADE000001002C000063
:105730000000000000000000418800CADE000000F8
:10574000001000000000010203040005405C00009E
:10575000A05C0400C06C0800805C0400E03F1E00F8
:10576000E07D1E00070400090805400809104008F4
:10577000080540081D0400081D0400081E265626C2
:10578000BEBED8BC07A9022570889B8840100800BF
:105790000A001600010006000100020087008D00CB
:1057A0002D001A3152001A339A001A351D011A378A
:1057B0006B003B31BE003B335E013B3596023B370D
:1057C000000098599859EA518E421E45142E0080C7
:1057D000EA51F4283233E03A703DE03AC235842B86
:1057E000C2353233C235C235AE47E03A5038A23006
:1057F000503800003F0000006465630069640000E9
:1058000072756E74696D650068656C7000000000EB
:105810006C6973740000000068657800766F6964D5
:1058200020726561645F7465737428756E7369674F
:105830006E65642063686172206164642900000001
:10584000766F6964207465737466756E3128766F3F
:1058500069642900766F6964207465737466756E77
:105860003228766F69642900766F69642053657405
:105870005F73746172745F415228766F69642900A6
:10588000766F696420556E7365745F7374617274AA
:105890005F415228766F696429000000766F696461
:1058A000206765746C6F6374696D6528766F6964D1
:1058B00029000000766F696420676F696E6728763B
:1058C0006F69642900000000766F69642053686F77
:1058D0007754696D65537461636B28766F696429C9
:1058E00000000000766F6964205072745F616E631F
:1058F000686E756D28766F6964290000766F69643B
:105900002053797374656D5F476574436C6F636B87
:105910007328766F69642900766F696420444D416D
:105920005F7465737428766F69642900766F6964A3
:1059300020756E6C6F636B666C61736828756E732F
:1059400069676E656420696E742070617373776433
:1059500029000000766F69642067657449447328E4
:1059600075696E743820696E6465782900000000DE
:10597000766F6964206765745359537374617475E5
:10598000732875696E743820696E64657829000023
:10599000B059000800000020A4020000C807000859
:1059A000805A0008A402002004140000FE2500080C
:1059B000012B13618823CADE02790114010114133B
:1059C000020222021A818A280941434B444154525F
:1059D00058901913215CFBFB110AB12AFF0419012D
:1059E00031BA034C69082C020304041506070809A0
:1059F0007B6CDC3F691413F457140808581B08101B
:105A0000041AFC0C1A18081AF8081119081B011CB2
:105A100014190813E93C140870591B08BD081A54DE
:105A200008139D401B081C1813ED1A1B0868081367
:105A3000CB211B0880081355131B08E408130D45E0
:105A40001B082C281339441B0840101A9D081A54AF
:105A50000813653D1B089C081B250B6819201A813B
:105A6000101AB4101AF1481AC808133C011C203946
:105A70004D3819401AED041AA90C8A0ECB01D90031
:04000005080000C12E
:00000001FF
