:020000040800F2
:1000000050190020D5000008710E0008090E0008E4
:1000100000000000000000000000000000000000E0
:10002000000000000000000000000000BB120008FB
:1000300000000000000000005D0F0008011400082F
:100040000501000805010008050100080501000878
:10005000050100080501000805010008F50B00086E
:100060000501000805010008090A0008050100084B
:100070000501000805010008050100080501000848
:100080000501000805010008511B0008191B0008A4
:100090000501000805010008050100080501000828
:1000A000050100080501000805010008912100086C
:1000B0000501000805010008050100080501000808
:1000C0000348854600F0A8FB00480047513D000862
:1000D000501900200C4880F308880C480168090E6C
:1000E0000B4A914205D10B480B4901600B480C4962
:1000F00001600C4880470C480047FEE7FEE7FEE73A
:10010000FEE7FEE7FEE700005019002004000000B3
:100110001F00000018100240010000000000014014
:100120000000000011140008C100000830B50B46A3
:10013000014600202022012409E00D46D5409D42C1
:1001400005D31D469540491B254695404019154647
:10015000521E002DF1DC30BD03460B439B0703D03C
:1001600009E008C9121F08C0042AFAD203E00B787C
:100170000370401C491C521EF9D27047D2B201E0F4
:100180000270401C491EFBD270470022F6E710B5F2
:1001900013460A4604461946FFF7F0FF204610BDF5
:1001A00030B504460020034600E05B1C934203D2B6
:1001B000E05CCD5C401BF8D030BD70B502464A40D3
:1001C000D50F40004A00ED0740085208002814D01F
:1001D000002A12D0C40DD30D41020120C0055202E5
:1001E000490A520AE41A091812187D34914201D3BF
:1001F000641C00E04900002C01DA002070BD0023DF
:10020000914201D3891A0343400849000028F7D1DD
:1002100000290AD0914202D10121C90705E091428B
:1002200001D2012101E00121C943E005C0184019B4
:1002300000F06BF970BD0000F0B51FB488B00B99E9
:100240000998002448400999C00F490049080991BC
:10025000C0070B990090490049080B91099908982B
:10026000A64608431CD00B990A98084318D0099851
:1002700001244000420D4800410D09982405000367
:10028000000B204309900B980003000B20430B90B8
:1002900050181C494018002201901446104605E0F1
:1002A000002001460DB0F0BD032801DA034600E04E
:1002B00003239C46C11A0AAE0AE05F0008ADED5B5D
:1002C0004F00F75B7D430027AA187C41491C5B1E49
:1002D0006145F2DD410004AB5A522104120C0A437D
:1002E000240C401C0828DFDB01980290009970461E
:1002F00001910090059B049A0799069800F053F924
:10030000D0E700000DFCFFFFF0B50C465C4085B067
:10031000E40FE40703944C00002664085900944657
:10032000490802460296224321D062460A431ED063
:100330006200570D4A000E032303550D01240246A7
:100340002C492405781B1B0B360B401823432643EE
:10035000614600901C46501AB44103D30098401CDB
:10036000009002E0921800985B41002803DA002018
:10037000014605B0F0BD002001210905074686466B
:1003800011E064461D46141BB54106D36546521B59
:10039000B341744607430C43A646CD0740084908BD
:1003A000284392185B4105460D43EAD11046184395
:1003B00013D06046194650407140084306D060464D
:1003C000101AB34106D20122002306E000220123C5
:1003D000DB0702E00122D243531000987446010566
:1003E000381C6141029C039D0019694100F0CEF860
:1003F000BFE70000FD03000010B500229623114660
:1004000000F08BF810BD00000EB5054902910021E7
:1004100000910A460B46019100F0C5F803B000BDFB
:10042000330400004A0009030123090B1B0519438B
:10043000094B10B5520D9A4201DA002010BD064B4F
:1004400034339A4203DC9A1A00F04EF810BD034987
:100450005118884010BD0000FF030000CDFBFFFFD6
:10046000C20FD207400040080BD0C10D0723DB01AB
:10047000C91840020905400A1143C2084007114348
:100480007047002001467047F0B51FB406460020B3
:1004900082B005464024019100901BE0019922465C
:1004A0000F46304600F020F8049A059B801A9941C7
:1004B00010D310461946224600F0C0F9361A8F4173
:1004C0000197224601200021009F00F0B7F938185B
:1004D0004D4100902046641E0028DFDC019B0098FF
:1004E0002946324607B0F0BD10B5202A04DB084685
:1004F000203AD040002110BD0B46D340D0402024EC
:10050000A21A91400843194610BD002904DA401C84
:10051000490001D140084000704770B40024050C28
:1005200005D11024000402D1002921D01124050E88
:1005300001D100020834050F01D10001241D850FEF
:1005400001D18000A41C002801DB4000641C0029AC
:1005500008D020252E1B0D46F540A14000D00121DA
:100560002943084301061B1B000ADB1D02D500209E
:1005700070BC7047DB05181880180029F8DA401C99
:100580004900F5D170BC40084000704710B5002B01
:1005900008DA0024401C614192185B411A4301D1E2
:1005A0004008400010BDF0B51FB482B005460C00F5
:1005B00003D0084601F08EFF02E001F08BFF2030EF
:1005C000024600902146284600F038F9049B059A1F
:1005D00004460F4618431143084314D018461043ED
:1005E0001BD0009840210A1A18460599FFF77CFF96
:1005F00005460E46009A0599049800F01FF9084335
:1006000005D0012004E02046394607B0F0BD0020A7
:10061000C11705430E432C43374300990E986305D9
:10062000401A7905E40A00220C43FD0A0A3002D57B
:1006300000200146E9E70105101969410C9C0D9D58
:1006400000196941FFF7A2FFDFE70000F0B5074698
:100650000846584087B0C00F049048000E46590025
:1006600040084908BC1A884105D2384631461E4622
:1006700017460B4602465800400810434CD0300D38
:10068000039040055900400D490D0590401A029015
:10069000402872DA18030121000B09050843019074
:1006A00004980092002805D0019952420020884108
:1006B00000920190029840210A1A0199009800F0D6
:1006C000BDF805460C466B4607CB00F0C7F8C019CD
:1006D0007141039A0E0D0023D71756401A467A40EF
:1006E000164344D0049A002A2DD0029A012A039A74
:1006F00015DC1205C01A914101263605001C714116
:10070000D20F059ED2070093019202962A462346F5
:10071000FFF749FF07B0F0BD38463146FAE7160546
:10072000224A0F46B218C01AB74101210905001C20
:100730004F4100187F41114618187941E20F1043CC
:100740006D19644113E0E2076D0815436408C207A0
:100750001443039A01261205C01A91413605001C64
:100760007141CE07400830434908C01851412A461C
:100770002346FFF70BFFCDE7FFE704980122400077
:10078000C117121A00238B4104983146C417381A36
:10079000A141EEE730B40124E407634030BC55E7E3
:1007A00030B40124E407614030BC4FE70000E0FFB3
:1007B0004A0009030123090B1B0519430A4B10B515
:1007C000520D9A4202DA0020014610BD064B343326
:1007D0009A4203DC9A1AFFF787FE10BD034BD2182A
:1007E00000F02CF810BD0000FF030000CDFBFFFF60
:1007F00010B5002904DB0124E40740428C41214666
:10080000002B04DB1C460123DB075242A341994223
:1008100000D1904210BD0000064C0125064E05E0B7
:10082000E36807CC2B430C3C98471034B442F7D311
:10083000FFF74AFC105900083059000810B5202A6B
:1008400004DB0146203A9140002010BD9140202356
:100850009C1A0346E3401943904010BD10B5202A6E
:1008600006DBCB170846203A1041C1170B4306E0C0
:100870000B461341D0402024A21A91400843194648
:1008800010BD70B58C180578401C6B075B0F01D14B
:100890000378401C2A1106D10278401C03E0067838
:1008A0000E70401C491C5B1EF9D12B0705D4002398
:1008B000521E0DD40B70491CFAE70378401CCB1A6A
:1008C000921C03E01D780D70491C5B1C521EF9D56B
:1008D000A142D8D3002070BD00B585B014222549AF
:1008E0006846FFF739FC2448C179684641712248BF
:1008F000017A6846817121480068C1B268468172F8
:100900001E4800680004010E6846C1721B4800685A
:100910000002010E6846017318480068010E68461F
:1009200041731748017868468173154800880112A1
:100930006846C17302F070FD00226946122003F080
:1009400062F900221146122003F072F9022003F02E
:10095000A9F87D20000101E0411E88B2094909780B
:10096000002901D10028F7D100200649087005B000
:1009700000BD0000145700081003002008010020EB
:10098000DC000020180000200020C043054908605A
:100990000548486100200871401E086101208860F8
:1009A0007047000000300240B71DC104014600201E
:1009B000054A9068182302469A43104602460A43A5
:1009C0001046014A906070470030024001490861BA
:1009D0007047000000300240014948617047000044
:1009E0000030024010B50121402000F0B9FAFFF7B5
:1009F000CBFF0020FFF7EAFF1020FFF7D7FF07200B
:100A0000FFF7EAFF10BD000010B5202000F01EF82F
:100A1000002808D0202000F009F8102000F006F887
:100A200000200149087010BDC00000200121090705
:100A30000140002902D00349486001E002494860B2
:100A40007047000000040240000002400146002000
:100A5000002201231B070B40002B02D0064B1A6813
:100A600001E0064B1A6813460B40002B01D0012011
:100A700000E0002070470000000402400000024037
:100A8000002A03D003680B43036002E003688B4332
:100A90000360704710B5002202680D4B1A400C6AC3
:100AA0008B6823430C6923434C6923438C6923439C
:100AB000CC6923434C6A23438C6A23431A43026064
:100AC000CB6843600B6883604B68C36010BD000057
:100AD0000F80FFFF10B50B4A904200D100E000BF2D
:100AE000A82212580B0F9C000F23A3409A43A8235F
:100AF0001A50A82212580B011B091A43A8231A5096
:100B000010BD00000000024000B58DB00121084674
:100B100000F026FA10200590002008900990069019
:100B20008020079000200A900C90039010200490E1
:100B300040020B900D48029002A90D48FFF7AAFF52
:100B40000C490B481C38FFF7C5FF01220221084859
:100B5000FFF796FF0A2168460171032141710121C7
:100B6000817101A800F086F90DB000BD2838014060
:100B70001C0002408000001010B5012007490870D9
:100B800020200749086201228021064801F0B0FBBD
:100B900000BF024800780028FBD110BDC000002033
:100BA000000002400038014001B581B000220092EF
:100BB00000200F4909688AB2009215E00C490968C3
:100BC0006A461288914206D3094909686A46128822
:100BD000891A88B208E0694609880022D243511A6E
:100BE000034A1268891888B201998842E6D30CBD7D
:100BF0000801002010B50120000300F03BF8002898
:100C00000FD000BF14480068804701210903092064
:100C1000C00600F0EBF80128F4D00120000300F03A
:100C200023F80120C00200F025F8002813D001208D
:100C3000C00200F019F809480078002808D100BF68
:100C40000121C902064800F0D1F80028F8D002E0DE
:100C500001200449087010BD040000201E0000207F
:100C6000000400481F00002001494861704700004F
:100C70000004014001460020044A52690A40002A4B
:100C800001D0012000E00020704700000004014076
:100C9000002120498279002A35D00A46126803686B
:100CA0009A430B461A600A46526803689A430B46F9
:100CB0005A60027951180A6803681A430A60154A93
:100CC000926803689A43134B9A601A46D268036885
:100CD0009A43104BDA604279102A0CD11A46926876
:100CE00003681A430B4B9A601A46D26803681A438A
:100CF000084BDA600DE00749427951180A68036829
:100D00001A430A6005E0027951180A6803689A4399
:100D10000A60704700040140F0B50A460021002334
:100D2000002400BF3DE001258D402B4615681D4085
:100D30002C469C4234D11579012D02D01579022D13
:100D400016D185684F000326BE40B54385605579AE
:100D50004E00B540866835438560858801268E4003
:100D6000B5438580858896798E40B6B235438580B7
:100D700005684F000326BE40B543056015794E0057
:100D8000B540066835430560C5684F000326BE4080
:100D9000B543C560D5794E00B540C6683543C560DA
:100DA000491C1029BFD3F0BDF0B5002300244D0726
:100DB000EE0E1546B5402B46CD10AE00054620354B
:100DC000AD594E07F70E0F26BE40B543CE10B60004
:100DD00007462037BD51CD10AE003D46AD591D43ED
:100DE0002C46CD10AD003E467451F0BD02460020A9
:100DF000138A0B40002B01D0012000E00020704737
:100E0000018570478161704700BFFEE71CB5012175
:100E1000C80400F0A5F80320C00200900121684634
:100E2000017100218171032141710121C171694664
:100E30000D48FFF771FF0121080500F091F804202B
:100E400000900121684601710021817103214171E7
:100E50000121C17169460548FFF75EFF042103487F
:100E6000FFF7CEFF1CBD000000080048000C004842
:100E70007047000000218278002A27D0184A0323F7
:100E80001B02D21803789B109B00D158027892075E
:100E9000D30EFF229A400B4693431946427892079D
:100EA000120E03789B07DB0E9A4011430C4A032372
:100EB0001B02D21803789B109B00D1500278D306F6
:100EC000DB0E01229A40064B1A6007E00278D30637
:100ED000DB0E01229A40024B80331A6070470000FB
:100EE00000E100E010B5002819DA1A4A03071B0FC9
:100EF000083B9B089B00D2588307DC0EFF23A340CE
:100F00009A438B071B0E8407E40EA3401A43114B30
:100F10000407240F083CA408A4001A5118E00E4A44
:100F200003231B02D21883089B00D2588307DC0ED0
:100F3000FF23A3409A438B071B0E8407E40EA340B4
:100F40001A43054B032424021B198408A4001A51D8
:100F500010BD00001CED00E000E100E07047000063
:100F6000002905D0054A52690243044B5A6104E046
:100F7000024A52698243014B5A6170470010024095
:100F8000002905D0054AD2690243044BDA6104E026
:100F9000024AD2698243014BDA6170470010024075
:100FA000002905D0054A92690243044B9A6104E086
:100FB000024A92698243014B9A61704700100240D5
:100FC000FEB5044600250026002002900190009006
:100FD0000027864840680C2108400546002D06D0B1
:100FE000042D07D0082D08D00C2D2CD128E08048E6
:100FF00020602BE07E48206028E07C4840680F217C
:10100000890408400646794840680321C90308401E
:101010000290B00C861C0298002803D17548374610
:1010200047430BE07148C06A0007000F401C019065
:101030006F480199FFF77AF870430746276005E08B
:101040006D48206002E06A48206000BF00BF67482A
:101050004068F021084005462D096848405D009031
:1010600020680099C8406060604840680721090214
:10107000084005462D0A6148405D0090616800986F
:10108000C140A1605948006BFF21013108408842EE
:1010900002D05B48E0600DE05448406801218903BC
:1010A0000840884203D0A0684008E06002E0A068E1
:1010B0008008E0604D48006B40210840402802D085
:1010C0005048206102E00120C00320614748006BC6
:1010D00010210840102802D04548606101E02068D6
:1010E00060614248006B8007800F002802D1A06831
:1010F000A06119E03D48006B8007800F012802D1F4
:101100002068A06110E03948006B8007800F02283A
:1011100002D18003A06107E03448006B8007800F94
:10112000032801D13248A0613048006B0321090433
:101130000840002802D1A068E06120E02B48006B45
:1011400003210904084001210904884202D12068D2
:10115000E06114E02548006B0321090408400121E7
:101160004904884202D18010E06108E01F48006B0A
:10117000032109040840884201D11D48E0611B4851
:10118000006B032189040840002802D1A068206276
:1011900020E01648006B03218904084001218904DE
:1011A000884202D12068206214E01048006B0321BD
:1011B000890408400121C904884202D1001120623B
:1011C00008E00A48006B032189040840884201D1E5
:1011D000074820620548006B80210840802802D023
:1011E0000548606200E06762FEBD0000001002403A
:1011F00000127A0000093D00006CDC02180100209A
:10120000809FD50012800000002904D0028840236E
:101210001A43028003E00288014B1A4002807047A3
:10122000BFFF00000246002013890B40002B01D0B5
:10123000012000E00020704710B500220288C12381
:101240009B011A400B88CC892343CC8823430C890B
:1012500023434C8923438C8923431A430280828889
:10126000084B1A408B881A4382800B8A03820288BB
:10127000054B1A404B881A430280838B034C234052
:10128000838310BDFFF00000FBFF0000FFF70000AC
:10129000014600220A460C32107870478288034BC0
:1012A0001A40828082880A4382807047FFEF0000E4
:1012B000002202460C3211707047704730B5002290
:1012C0008B071C0F0F23A3401A460B4B8C10A40056
:1012D0001B599343084C8D10AD00635123468C106D
:1012E000A4001B598C07250F0446AC402343024C35
:1012F0008D10AD00635130BD0800014011201D4923
:1013000008601D4840681C494860084640684860BD
:10131000084640687F21C90388431749486008464A
:1013200040680521C904084313494860084600681D
:101330000121090608431049086000BF0E480068F3
:101340000121490608400028F8D00B484068800871
:101350008000094948600846406802210843064960
:10136000486000BF044840680C2108400828F9D1B3
:101370007047000000200240001002407FB5104876
:1013800004881AE0611E89000E4A5058FFF73CF8A5
:10139000054600220C4BFEF74FFF00220B4B01913C
:1013A0000090FEF7B1FF039102902146641E08A051
:1013B000039B029A01F07EF800BF002CE2D17FBDB2
:1013C00010010020F00400200000104000408F4079
:1013D00025643A2566207573200D0A00042806D17D
:1013E0000649096904221143044A116105E00349D1
:1013F000096904229143014A1161704700E000E04D
:1014000002480068401C014908607047080100203C
:1014100010B51B48006801210843194908600846B7
:10142000406818490840164948600846006816494F
:101430000840134908600846006801218904884370
:101440000F490860084640683F21090488430C4959
:1014500048600846C06A00090001C8620846006B7F
:10146000FF2154318843064908630846406B400811
:101470004000486300208860FFF740FF10BD000077
:10148000001002400CB8FFF8FFFFF6FEF0B589B07F
:101490001422394903A8FEF75FFE00200290374866
:1014A00081786846C17435484088011268460175E4
:1014B0003348817A684681753148C17A6846C1757A
:1014C0002F48017B684601762C48407800284FD091
:1014D0002B48867AC07A0002801986B22848077B9A
:1014E000284804680BE02546183D6878B04205D1CD
:1014F000A878B84202D10120029003E02468214874
:101500008442F0D100BF029800280CD02046183841
:10151000806803C802460B460191009006A801307E
:1015200002F0A9FB05E00022134606A8013002F0F4
:10153000A2FB002203A9142002F065FB0122002176
:10154000142002F075FB002002F0ACFA0E4801E016
:10155000411E88B20D490978002901D10028F7D130
:1015600000200A49087002F040F9012009B0F0BDDE
:101570000020C043FAE7000054570008AC000020E8
:1015800010030020FC000020B80B00001800002011
:10159000F0B58BB07B4801460EC9C06806AC0EC4DE
:1015A0000990002778480088401C774908807748D0
:1015B000407800287ED1012102F0F6FE05466978C8
:1015C00008A881706878011208A8C170A978017113
:1015D00002248DE06846447721128177002206A913
:1015E0000F2002F010FB012200210F2002F020FB4F
:1015F000674802F0EFF900BF00206649087002F06A
:1016000051FA7D20000101E0411E88B2624909784B
:10161000002901D10028F7D100205F49087002F0AD
:10162000E4F85E4809E0002802D0421E90B204E0CF
:101630005B4A11784A1C5A4B1A705949097800299B
:1016400003D1544909780029EDD055480078012884
:101650001BD1002052490870781CC7B2032F43D118
:101660000022E300A868C0180346803B80389A67D0
:10167000C2670027601E40004A49085A401C81B2D8
:10168000601E4000474A11522FE000204149087077
:101690004548807A08A98978884218D14248C07A9A
:1016A00008A9C978884212D13F48007B08A9097966
:1016B000884200E059E00AD10027E200A8688018BB
:1016C0000146083938480D3002F0C6FA0DE0781CA2
:1016D000C7B2601E40003549085A401C81B2601EE6
:1016E0004000324A115200E086E700BF601CC4B2DD
:1016F00026488079A04200DB6CE7002002F06AF9FE
:101700006978214802882AA000F0D4FE002622E051
:101710001D480088FEF770FE7100224A0290505A60
:10172000FEF76AFE01900299FEF747FD0390FEF76F
:1017300097FE0490059101910090F100A86840186F
:1017400003C802460B4603910290711C1DA000F0D5
:10175000B1FE701CC6B20D488079B042D8DC0020C2
:1017600002F043F801200BB0F0BD0121002002F08F
:101770001BFE002002F02EF9002002F036F80120B6
:10178000F1E700002857000804010020AC00002009
:10179000B80B00001B0000201800002028230000C8
:1017A0001A000020DA04002010030020E4040020C6
:1017B00054414749443A20256420546F6C3A2564CB
:1017C0000D0A0000414E43484F523A2025642054F0
:1017D000533A20256C6C78204C6F737461633A2502
:1017E0002E33660D0A000000F0B58FB0B5480146F3
:1017F0000EC9C0680AAC0EC40D900027B14A103261
:1018000007CA06AB07C3B048407800287CD1012145
:10181000084602F0C9FD04467D20400102F0DAF8D6
:10182000618A88006421FEF781FC80B20990002063
:10183000A6498870617868464177607800128030E8
:101840006946887700202074002562E06846857626
:10185000002206A90C2002F0D6F9002211460C2025
:1018600002F0E6F951E0022002F01CF97D200001AF
:1018700001E0411E88B296490978002901D100286B
:10188000F7D1002092490870924809E0002802D060
:10189000421E90B204E0904A11784A1C8E4B1A7096
:1018A0008D490978002903D18C4909780029EDD0A8
:1018B00089480078012812D1002087490870781CD7
:1018C000C7B2032F21D10027207C401C2074642143
:1018D0006943626950186421FEF757FC16E0002046
:1018E0007E4908707948407A20280CD17748807862
:1018F000A84208D16421694362695018642273497F
:101900000A31FEF729FC01E0CFE0ACE700BF681C1C
:10191000C5B20998854299DB617808A8817460781E
:10192000011208A8C174A1780175022676E008A802
:1019300046733112817300220AA90F2002F063F965
:10194000012200210F2002F073F9654802F042F8ED
:1019500000BF00206149087002F0A4F87D2000015A
:1019600001E0411E88B25A490978002901D10028B6
:10197000F7D100205649087001F037FF594809E0B7
:10198000002802D0421E90B204E0534A11784A1C4B
:10199000514B1A7050490978002903D14F490978F1
:1019A0000029EDD04C480078012811D100204A4987
:1019B0000870781CC7B2032F2CD100270022F30037
:1019C000A068C0180346803B80389A67C26722E04F
:1019D0000020424908703D48807A08A9897C8842E5
:1019E00015D13A48C07A08A9C97C88420FD1374836
:1019F000007B08A9097D884209D10027F200A06870
:101A00008018014608390DA802F026F903E0781C79
:101A1000C7B200E09DE700BF701CC6B22A488079BB
:101A2000B04284DC002001F0D5FF002001F0DDFE93
:101A300061782DA000F03EFD00250DE0E900A068D2
:101A4000401803C802460B4605910490691C29A062
:101A500000F030FD681CC5B21B488079A842EDDC5F
:101A6000002519E0EA00616989184868FEF7F8FC6A
:101A700005910490EA0061698858FEF7F1FC039132
:101A80000290059904980191009020A0039B029A6E
:101A900000F010FD681CC5B2608AC10F091849101A
:101AA000A942DFDC01200FB0F0BD0121084602F0A1
:101AB0007BFC002001F08EFF002001F096FE01204B
:101AC000F1E7000038570008AC00002010030020A8
:101AD00018000020E02E00001A0000201B0000204B
:101AE000B80B00002823000054414749443A202500
:101AF000640D0A00414E43484F523A202564205459
:101B0000533A20256C6C780D0A000000252E3266B1
:101B100009252E32660D0A0010B501210A4800F091
:101B20007EF801280AD10949086980470021064842
:101B300000F094F86421044800F08EF80121024876
:101B400000F04FF810BD0000002000409001002080
:101B500010B5002401211D4800F061F8012830D1A2
:101B6000002C03D004201A49886103E0012080047E
:101B700017498861002C01D1012000E000200446B3
:101B800001F04AFC13480078134988701148007826
:101B9000401C1049087041200F4908708820487087
:101BA000A0204872FF204871887100220C2002F0AA
:101BB0002AF8012200210C2002F03AF8022001F05C
:101BC00071FF0121014800F00CF810BD0014004025
:101BD000000C0048C100002020000020CA430282FF
:101BE0007047CA4302827047002904D0028801234B
:101BF0001A43028003E00288014B1A4002807047BA
:101C0000FEFF00000146486A704702460020138A22
:101C10000B40002B01D0012000E00020704730B5C0
:101C20000246002000230024158A0D402B4695898A
:101C30000D402C46002B03D0002C01D0012000E0E9
:101C4000002030BD002A03D083890B43838102E04A
:101C500083898B4383817047C162704741627047BB
:101C600000220288154B984206D001239B07984218
:101C700002D0134B984203D1124B1A404B881A439F
:101C8000114B984203D0114B1A400B891A43028022
:101C90004B68C3620B880385084B984208D00C4BF5
:101CA000984205D00B4B984202D00B4B984201D181
:101CB0008B7A03860123838270470000002C014049
:101CC000000400408FFF000000100040FFFC0000F7
:101CD000004001400044014000480140F0B589B097
:101CE000002668494A680868896807920891069042
:101CF0006548407800287AD10021012002F054FB89
:101D000005467D20400101F065FE698A8800642156
:101D1000FEF70CFAC7B200205C4988706878694603
:101D20004877687800128030887700202874002473
:101D300062E068468476002206A90C2001F063FF69
:101D4000002211460C2001F073FF51E0022001F047
:101D5000A9FE7D20000101E0411E88B24C490978AE
:101D6000002901D10028F7D10020494908704948CD
:101D700009E0002802D0421E90B204E0464A1178E1
:101D80004A1C454B1A7044490978002903D143493C
:101D900009780029EDD040480078012812D10020B0
:101DA0003D490870701CC6B2032E21D10026287C44
:101DB000401C2874642161436A6950186421FEF74D
:101DC000E4F916E00020354908703048407A2028B0
:101DD0000CD12E488078A04208D1642161436A6901
:101DE0005018642229490A31FEF7B6F901E045E0AE
:101DF000ACE700BF601CC4B2BC429ADB002001F01B
:101E0000E9FD002001F0F1FC00240EE0A200A96829
:101E10008858FEF725FB02460B4605910490611C8D
:101E20001FA000F047FB601CC4B217488079A04295
:101E3000ECDC002419E0E200696989184868FEF7C3
:101E40000FFB05910490E20069698858FEF708FBD2
:101E500003910290059904980191009016A0039BAC
:101E6000029A00F027FB601CC4B2688AC10F0918EF
:101E70004910A142DFDC002009B0F0BD0120C043C1
:101E8000FAE7000068570008AC00002010030020AB
:101E900018000020E02E00001A0000201B00002087
:101EA000414E43484F523A202564204449533A203A
:101EB000252E32660D0A0000252E326609252E32A7
:101EC000660D0A00F8B51348407800281FD100219C
:101ED000084602F069FA0746002001F07BFD002069
:101EE00001F083FC00240CE0A200B9688858FEF7DA
:101EF000B7FA05462A460B46611C07A000F0DAFA3D
:101F0000641C04488079A042EEDC0020F8BD00206B
:101F1000C043FBE7AC000020414E43484F523A20FB
:101F20002564204449533A20252E32660D0A0000CC
:101F3000F0B58DB000200A900F2104A8FEF725F916
:101F4000774A07CA01AB07C30020009001F064FA8A
:101F500001F07EFC7348C179684641727148017A8C
:101F600068468172704801786846C1726E48008880
:101F7000011268460173112141736A4881786846ED
:101F800081716A4801F026FD00200090002201A91D
:101F90000C2001F038FE012200210C2001F048FE47
:101FA000022001F07FFD0B900B98401C002800D10F
:101FB000AAE07D20000101E0411E88B25C49097859
:101FC000002901D10028F7D100205949087000905C
:101FD00000BF584809E0002802D0421E90B204E039
:101FE000554A11784A1C544B1A70534909780029F4
:101FF00003D1524909780029EDD04F4800780128D3
:1020000006D100204C4908700098401CC0B20090D6
:102010000098012800D16BE0484800780028D8D00B
:10202000002046490870009001F0F6F901F073FEB7
:102030000991089001F058FE04460D4629467D237B
:102040001B050022E01851410906000A08430A90C6
:102050000A98400840000021020E0B0213430102BF
:10206000374A00208E1843411F4603A80230099BBF
:10207000089A01F000FE22462B4604A8033001F026
:10208000FAFD32463B4606A801F0F5FD13206946ED
:102090004873002201A91B2001F0B5FD0122002197
:1020A0001B2001F0C5FD0A9801F0F0FB012001F0B2
:1020B000F9FC0B900B98401C002800D124E07D20F7
:1020C000000101E0411E88B219490978002901D1B7
:1020D0000028F7D100201649087001F05FFC0020AD
:1020E00001F078FC002001F080FB00200DB0F0BD75
:1020F000002001F053FC002001F06CFC002001F0F6
:1021000074FB0020C043F1E7002001F047FC0020F1
:1021100001F060FC002001F068FB0120C043E5E70E
:102120008057000810030020BE000020980800001F
:1021300018000020641900001A0000201B00002075
:102140006F4000007FB504460D4601210802FEF7EE
:1021500017FF02946846858000218181C18001A912
:102160000A48FFF77DFD012241210848FFF76AFD7B
:102170001321684601700221417001218170FEF730
:1021800079FE01210148FFF72FFD7FBD00200040AF
:1021900010B52049204800F0BFF8002839D01E486B
:1021A00000F07EF9C4B21D4800880121C90308402F
:1021B00000282ED1194800884910084000280DD069
:1021C0000A2C03D000201549088022E0134800881B
:1021D0000121C9030843114908801AE00D2C07D1D9
:1021E0000E4800880121890308430C49088010E04B
:1021F0000A4800888004800C09490C54074800886C
:10220000401C06490880084600887F2801DD002020
:10221000088010BD050105000038014000000020C5
:102220009002002001627047002904D00268012357
:102230001A43026003E002685208520002607047CD
:1022400000B589B001214804FEF78AFE0121880308
:10225000FEF7A6FE01220921C806FEF7A5FD012210
:102260000A210920C006FEF79FFD012040020190CF
:10227000022168460172012141720021817201210F
:10228000C17201A90920C006FEF746FD01208002A7
:10229000019001A90920C006FEF73EFDE1204002A1
:1022A0000390002004900590069008900C20079061
:1022B00003A90D4800F078F80C490B48FFF7B2FF6E
:1022C00001220A49084800F04EF801210648FFF7AC
:1022D000ABFF1B2168460170012141708170FEF740
:1022E000C9FD09B000BD000000380140050105002E
:1022F000002A03D083680B43836002E083688B432A
:102300008360704702460020D3690B40002B01D048
:10231000012000E00020704770B502460B46002403
:102320000021002500201E04350ED9B201268E4062
:102330003146012D02D11668314006E0022D02D14E
:102340005668314001E0966831401C0C0126A640D9
:102350003446D6693440002903D0002C01D0012036
:1023600000E0002070BDF8B503460024002600966A
:102370000025002018460E04340ECEB20096012728
:10238000009EB7403D46022C01D1001D02E0032C07
:1023900000D10830002A03D006682E43066002E010
:1023A0000668AE430660F8BDF0B58BB004460D4636
:1023B000002700200A900026206840084000206086
:1023C000666803210903304688430646A868064329
:1023D000666026682D480640E968686808432969F0
:1023E000084306432660A668032109023046884355
:1023F000064668690643A6606846FEF7E1FD244884
:10240000844202D106980A900DE02248844202D10B
:1024100007980A9007E02048844202D108980A9061
:1024200001E002980A9020680121C90308400028B1
:102430000CD029680A9A5000FDF778FE07462968F3
:102440000A9A5000FDF772FE0E4609E029680A98C4
:10245000FDF76CFE074629680A98FDF767FE0E46F1
:1024600028684008B04200D87F1C20680121C903B9
:102470000840002806D03807460F3846074908406C
:1024800030430746A7810BB0F0BD0000F3E9FFFF22
:10249000003801400044004000480040F0FF0000C8
:1024A0000146888CC005C00D7047CA05D20D028553
:1024B000704700000FB410B503A9044B044A0298FA
:1024C00000F0CAF910BC08BC04B01847953C0008DD
:1024D000840200202021020C01D010211046020AA3
:1024E00001D010460839020901D01046091F8208A0
:1024F00001D01046891E420801D0881E7047081A74
:10250000704730B47446641E2578641CAB4204D313
:10251000635D5B00E31830BC18471D46F8E702E036
:1025200008C8121F08C1002AFAD17047704700205E
:1025300001E001C1121F002AFBD1704710B5002233
:1025400002212C2001F023FB022211462C2001F055
:102550001EFB10BD10B504466D2209492E2001F066
:1025600016FB002C05D0074A07492E2001F0EDFA92
:1025700004E0064A04492E2001F0E7FA10BD0000ED
:1025800006080000070600000618000007160000F5
:1025900010B5002000F006F800220421362001F0DA
:1025A000D4FA10BD38B504466B460222002136200D
:1025B00001F0CEF82300FFF7A4FF0F12091B5B5BAD
:1025C0005B5B24325B5B3E454C555B0000216846FB
:1025D00001704078FE2108406946487049E069462C
:1025E0000878FC210840012108436946087040E052
:1025F00069460878FC2108400221084369460870B2
:1026000037E068460078B321084048210143684616
:1026100001704078802108436946487029E0684687
:102620000178B32001406846017040784106490EA8
:10263000684641701DE069464878022108436946B2
:10264000487016E069464878FD21084069464870A0
:102650000FE069460878CF210840202108436946E9
:10266000087006E00121684601700321417000E016
:1026700000BF00BF6B4601220021362001F091FA15
:1026800000AB013301221146362001F08AFA38BD31
:1026900010B50E20FFF786FF0122D20306212D2060
:1026A00001F053FA012000F073FC0120FFF77AFFDC
:1026B00010BD70B50446A2B204212D2001F045FAE8
:1026C000032206212D2001F062FA002206212D208E
:1026D00001F05DFA0A212D2001F013F80546284685
:1026E00070BD0000F0B51FB486B00998089A030DBC
:1026F0000021024314D05148514A18185043051480
:102700001198012810981AD0281A401C00264D4F05
:102710004D49009601910490002812DA444211E0DC
:102720001198012449A3012801D11098C1430698AA
:10273000119A84600360C26041600BB0F0BD4042FA
:10274000E4E70446210500203F4A001C5141039163
:10275000029012E0E00707D032463B46019900980C
:10276000FDF76AFD0191009032463B46104619463E
:10277000FDF762FD06460F466410002CEAD104986E
:10278000039B0028029A0999089806DAFDF754FD80
:10279000019B009AFDF750FD05E0FDF7B5FD019B9B
:1027A000009AFDF7B1FD04460E460022284BFEF7C5
:1027B0001FF803D80020C043014607E00022254B44
:1027C00020463146FDF742FFFDF7F2FF102409E0F5
:1027D000002C0ADB0A220023FDF756FE079B30324D
:1027E0001A55641E02460A43F2D11122641C079B4B
:1027F000121B1C19119B012B03D0012308430ED17E
:102800000AE0084304D0112010900020119077E7CF
:102810001098151A6D1E0BE01098824202DD0023FD
:102820006D1C03E0824201DA00236D1E002BEED006
:10283000069811998260C16030C07EE701FCFFFFFD
:10284000104D0000000014400000F03F3000000078
:102850000000F0430000E03FFFB597B006460025BA
:1028600018E2252877D100242746FD49049400E08A
:102870000443761C32780120203A90400842F7D178
:1028800030782A280ED002223078014630390929C2
:1028900016D804990A235943303940181443761C3A
:1028A0000490F1E7189802C804911890002904DAFE
:1028B0000120400304434842049002200443761C54
:1028C00030782E2814D1042004437078761C2A28EE
:1028D00009D11898761C80C8189009E00A214F4346
:1028E000303FC719761C3078014630390929F5D9AF
:1028F00030786C2810D006DC4C281AD068280ED00E
:102900006A2817D104E0742813D07A2812D110E075
:102910000120400504430CE00121090501E00321E9
:1029200009050C437178814203D101200005241868
:10293000761C761C3078119066280BD013DC582852
:102940007DD009DC00287BD04528F6D04628F4D07D
:1029500047281AD1A5E118E0632835D0642870D043
:10296000652812D19DE170286CD008DC6728F1D071
:1029700069287BD06E280DD06F2806D1BAE0732865
:102980002ED0752871D0782859D01A9A1999904765
:102990006D1C7EE16002400F022809D003280DD093
:1029A0000428189801680DD00D60001D189070E182
:1029B0001898EA1701680D604A60F6E718980168F0
:1029C0000D80F2E70D70F0E718986A4601781172F1
:1029D000001D18900020507202A80090012005E010
:1029E000189802C8189000200091C04361070DD5C7
:1029F000002101E00199491C0191B94212DA81429A
:102A0000F8DB009A515C0029F4D10BE0002101E0D1
:102A10000199491C01918142FADB019A0099895C74
:102A20000029F5D1019904981A9B471A2146384686
:102A3000199A00F097FA0199401945180BE04FE0F8
:102A40002CE113E04EE0009800990078491C0091B9
:102A50001A9A199990470198401E0190401CF2D192
:102A6000214638461A9B199A10E137E00A200021C6
:102A7000009001916002410F022907D0189A01CA03
:102A80001892C2179446032908D00AE01898C01D6E
:102A9000C108C90005C91891944607E000B2C217E1
:102AA0009446042902D140B2C1178C4600226146E7
:102AB000944506DA0A460021404291418C462D2178
:102AC00002E0210504D52B216A461173012103E0A0
:102AD000E10701D02021F7E7029155E00A200AE042
:102AE000102008E0102000900021042004430191F0
:102AF000082703E008200021019100906002410FA7
:102B0000022907D0189A01CA189200229446032974
:102B100008D008E01898C01DC108C90005C918915F
:102B2000944603E080B2042900D1C0B20021029192
:102B3000210729D51199702906D0009A1021019BEF
:102B40004A401A4305D00EE040216A461173012124
:102B500008E06146014306D030216A46117311999D
:102B6000517302210291009A0821019B4A401A43A5
:102B70000AD16146014301D1610705D530216A467A
:102B8000117301217F1E02911199582904D035A19A
:102B90000E910DA90D910DE037A1F9E76146019B5A
:102BA000009AFDF771FC0E9B8C469B5C0D9A521EA1
:102BB0000D92137061460143F0D10D9805A9081AD2
:102BC00020300190600703D501200004844300E019
:102BD00001270198874201DD381A00E000200199A1
:102BE00000904118029809180498401A0490E003D4
:102BF00006D421461A9B199A049800F0B3F9451996
:102C0000002706E003A81A9AC05D199990476D1C29
:102C10007F1C02988742F5DBE0030CD521461A9B06
:102C2000199A049800F09EF9451904E01A9A302088
:102C3000199990476D1C0099481E00900029F5DCF9
:102C400008E00D980D990078491C0D911A9A199970
:102C500090476D1C0199481E01900029F1DC63E149
:102C60000928010030313233343536373839616262
:102C70006364656600000000303132333435363726
:102C800038394142434445460000000000F05AF9FB
:102C90004519761C3078002800D0E2E528461BB0A4
:102CA000F0BD600700D406271898C01DC108C900F0
:102CB00048680A680831C30FDB071891190001D072
:102CC0009CA108E0210501D59BA104E0E10701D00A
:102CD0009AA100E09AA1430011985B081091652821
:102CE0000CD006DC452809D046281DD0472841D104
:102CF00041E0662818D067283CD13CE00021112F24
:102D000001DB112000E0781C0191009008A911A8B6
:102D1000FFF7E8FC139905910021119A15927F1C89
:102D200012980197009150E00120C0070390012004
:102D3000019008A9009711A8FFF7D4FC139A1499E1
:102D400005920022119B009212981593059A019208
:102D5000002901D0104602E0791C40180190381A71
:102D600001D5019804E04042401E0090781C01907B
:102D7000C01B029043E0012F00DA01270021112F30
:102D800001DD112000E038460191009008A911A84A
:102D9000FFF7A8FC13990591119A0021129815923A
:102DA0000091019721070CD40599B94201DB0199E3
:102DB00000E00191012904DD159A491E515C30297A
:102DC00006D0B84201DA011D05DA0121029115E0B1
:102DD0000199491EEDE7002805DC00994118009192
:102DE0000199091A03E0019A411C914200DD019109
:102DF0000099401A401C02900120C0070390200750
:102E000006D402990198814202DB0020C04302905F
:102E100000206946C87707AF012103980337C90727
:102E2000884224D0022011902B2012900398002871
:102E30000CDA404203902D20129007E00A210398FB
:102E4000FDF774F930317F1E039039701199481ED7
:102E500011900029F2DC03980028EFD1791E129816
:102E600008703078202108404530BF1E387006A811
:102E7000C01BC01D039010980078002800D00120CE
:102E8000019941180298C017091803980918049865
:102E9000401A401E0490E00306D421461A9B199A5A
:102EA000049800F05FF8451910980078002803D0C6
:102EB0001A9A199990476D1CE00324D521461A9B54
:102EC000199A049800F04EF845191CE00098002863
:102ED00007DB00990598884203DD1598405C199935
:102EE00001E0199930201A9A904700986D1C401CF7
:102EF00000900298401E0290002804D11A9A2E20B9
:102F0000199990476D1C0199481E01900029DDDC3C
:102F100005E038781A9A7F1C199990476D1C03991F
:102F2000481E03900029F4DC21461A9B199A049844
:102F3000ACE600002D0000002B0000002000000087
:102F400000000000F8B5044600251E461746880418
:102F500004D405E039462020B0476D1C641EF9D525
:102F60002846F8BDFFB50446002581B01E46C803BB
:102F700001D5302700E02027880404D505E0384635
:102F80000399B0476D1C641EF9D5284605B0F0BD05
:102F900010B504462046FDF707FE10BD002800D0FE
:102FA00062B670470120002800D072B6704700005A
:102FB00010B57D21890110480068FDF7B7F8044677
:102FC000601E0E49884201D901200CE0601E0C49A8
:102FD00048610021481EFDF785FF002008498861EF
:102FE000072008610020002801D000BFFEE7042070
:102FF000C043FEF7F3F910BD28010020FFFFFF00DA
:1030000000E000E000B585B001210846FDF7C8FFEB
:1030100001214804FDF7A4FF0120000303900021D3
:10302000684601740221C1740321417403A9092077
:10303000C006FDF771FE0C210020FEF73FF90120CC
:1030400000030190002168460172082141720121AC
:10305000817201A8FDF71CFE07216846017001215D
:1030600041708170FDF706FF05B000BD10B500F09E
:10307000D5FF012000F0FAF9401C002804D122A05D
:10308000FFF718FA00BFFEE723A0FFF713FAFFF7D8
:10309000B9FFFFF787FF044601F052F8254800F01A
:1030A00061F8012000F020FC234800F06BFF20466F
:1030B000FFF774FF214800F083FC204800F0BAFCC1
:1030C0001F4A00210F2000F04FFD01211D4800F094
:1030D000EEFB1D4B1D4A1E491E4800F0CDFB1E484D
:1030E000008800F053FC1D4800F0D8FB1C48008805
:1030F00000F0BAFB182000F06BF9082000F050F93E
:10310000002000F067FC10BD494E4954204641495B
:103110004C45440D0A00000055574220446576692D
:10312000636520696E697469616C697365640D0A11
:1031300000000000A00000206D3500086F40000076
:103140000040800080D023247140000835410008F1
:103150007D40000871430008B4000020B600002044
:10316000BE000020FEB504462578607940007E4907
:10317000085A01906078401EC6B2042D01D0072D78
:1031800001D1012000E000200090E07900280AD160
:1031900076484069012189050843744948610198CE
:1031A000C010019006E071484069012189058843FB
:1031B0006E494861207A6D490872084640690321CA
:1031C000090488436949486108464069217A09042D
:1031D0000322120411400843644948610846002153
:1031E0004269042000F0C0FC61492E20019A00F0E1
:1031F000ACFC3046FFF7AEF95E48405D80005E49AA
:103200000A5807212B2000F0AFFC5A48405D5B496B
:103210000A5C0B212B2000F0BAFC594900980A5C8B
:103220000B21282000F0B3FC5248405D8000554936
:103230000A580C21282000F097FCE07980005249C0
:103240004018A1794900425A0221272000F07DFC54
:1032500070004E490A5A0421272000F076FCE079DC
:10326000002805D164220621272000F06EFC17E01B
:10327000A07804280AD110220621272000F065FC3E
:1032800010222621272000F082FC09E020220621BE
:10329000272000F05AFC28222621272000F077FC66
:1032A00030013B494018E178890042580821272025
:1032B00000F05AFC6089002801D13648608162899B
:1032C0002021272000F041FC33480C2102682320F4
:1032D00000F04AFC71003048001D425A04212320AE
:1032E00000F033FCA079002806D0E0792B490A5C75
:1032F0000021212000F04BFC2807000F2901F022BB
:103300001140084361788904032292041140084364
:10331000A179490401225204114008432179890509
:103320001F229205114008436179C906C90EC906DA
:10333000084307463A4600211F2000F015FCA078FC
:10334000617808430004E179490308430749C860EC
:1033500008460021C268082000F006FC4222002135
:103360000D2000F014FCFEBD0858000818050020D0
:10337000042800008C570008AC570008C457000808
:10338000CA57000894570008D8570008E4570008A7
:10339000E857000841100000CC570008D457000837
:1033A00010B50446224603211A2000F0F0FB07481E
:1033B0004069012189070843044948610846002102
:1033C0004269042000F0D0FB10BD00001805002069
:1033D00070B505460021042000F093F90C4908401F
:1033E0000446002D09D0FF21FF31204688430446C2
:1033F00028460840401C044301E064086400054876
:10340000446122460021042000F0AEFB70BD0000A4
:10341000FFFF47F01805002070B500210E2000F0D6
:1034200070F90546FFF7BEFD0446002211460E2046
:1034300000F09AFB402200210D2000F0A8FB094A71
:1034400000210F2000F090FB00F06CFB2A460021C9
:103450000E2000F089FB2046FFF7A0FD0020024966
:10346000887670BDF8FF272418050020F8B50446BB
:103470000025002700203A4948748876088388622E
:10348000C8620863486300F05DF93649884201D09C
:103490008817F8BD00F0E4FA0020FFF783F8042253
:1034A0000021242000F073FB1E20FFF702F985B2F3
:1034B00028122B4948720420FFF7FBF80746F8B2A0
:1034C00000280BD0022212212D2000F060FB24489E
:1034D000008B012109030843214908830620FFF7D7
:1034E000E8F81F4908600720FFF7E3F81C49486027
:1034F000E806C00E08740846007C002801D11020A0
:1035000008741749087C00F09DFAE007C00F0028F6
:1035100009D0FFF7BDF81248008B0121C90208430A
:103520000F4908830CE00521362000F0D7F8064645
:103530000D48064032460521362000F006FB00BF4C
:103540000120FFF72FF800220A212C2000F01FFB9A
:103550000021042000F0D5F801494861002098E7D7
:10356000180500203001CADEFFFD000070B5002103
:103570000F2000F0C6F857490446C86101208003B7
:103580002040002855D06F22120200210F2000F0A9
:10359000EBFA00214F481C300172102000F09EF819
:1035A0000546AE05B60D4B48007A002801D17606D7
:1035B000760E484806840120C0032840002807D022
:1035C00044481C30007A0121084342491C310872EA
:1035D000404B223302220021112000F0B9F80820CC
:1035E0002040002813D03B481C308079202108401F
:1035F00000280CD1082200210F2000F0B5FA354830
:10360000C069082188433349C86100208876314861
:10361000C06A002803D02F48C16A1C3088472D4853
:10362000407C002804D0012203210D2000F0AFFAD5
:1036300000BF80202040002818D0F82200210F2051
:1036400000F092FA08202040002807D02148807E10
:10365000002803D0FFF7E0FE00F0FAF81D48806A6A
:10366000002803D01B48816A1C3088471120400481
:103670002040002814D00122520400210F2000F025
:1036800073FA002013498876FFF7C6FE00F0E0F8D1
:103690001048006B002803D00E48016B1C3088478F
:1036A0000D482040002813D00B4A00210F2000F0C5
:1036B0005BFA002007498876FFF7AEFE00F0C8F8F5
:1036C0000448406B002803D00248416B1C308847F7
:1036D00070BD00001805002000900524F8B50446D0
:1036E0000D460026A9B2A0B26B46022200F030F8C7
:1036F00068464078010268460078081886B230466D
:10370000F8BDF8B505460E460027B1B2A8B26B4623
:10371000042200F01DF8032404E038026946095D24
:103720004718641E002CF8DA3846F8BD38B5044650
:103730000D46A9B2A0B26B46012200F009F8684616
:10374000007838BD10B500210846FFF7DAFF10BD3C
:10375000FFB581B006460C4617460025002C04D163
:1037600029466D1C684646541AE040203043C2B2D8
:1037700029466D1C684642547F2C04DC28466D1C8B
:1037800069460C540CE0E0B28021084329466D1CC8
:103790006A4650546004020E28466D1C69460A545D
:1037A000A8B23A466946049B00F0F2FB05B0F0BDB2
:1037B00070B504460D46164623462A46314611206A
:1037C000FFF7C6FF70BD10B5044623460522002151
:1037D0001520FFF7BDFF10BD10B504462346052296
:1037E00000211720FFF7B4FF10BD70B50446042078
:1037F0002040002801D100F095F9FF250135E007B0
:10380000C00F002801D0680005432A4600210D2082
:1038100000F09BF9E007C00F002817D003210F200C
:10382000FFF784FF06460820304000280ED0FFF73F
:10383000F3FD02202040002805D1FF2201320021A3
:103840000D2000F082F90020C04370BD0020FCE78D
:1038500010B5E0220321362000F099F9F02203216F
:10386000362000F094F910BD10B504462246002120
:10387000032000F06AF910BD10B5034CA062E162AC
:103880002263636310BD00001805002010B50446D4
:10389000224601210A2000F067F910BD10B5044648
:1038A000234608220021012000F07BF910BDF8B565
:1038B00004460E46FFF776FB074600210E20FFF771
:1038C00020FF0546002E03D028462043054602E08F
:1038D0002846A04305462A4600210E2000F044F960
:1038E0003846FFF75BFBF8BD70B50546E807C00F2B
:1038F00000283BD000212620FFF703FF04460F21BC
:10390000890220468843044605208002044322465B
:103910000021262000F028F900213620FFF7F1FED3
:10392000044621208004044322460021362000F072
:103930001BF9FF24113402202840002802D00F2058
:103940000004044322462821362000F00DF902200D
:103950002840002819D00F21090420468843044636
:1039600022462821362000F0FFF80EE00021262014
:10397000FFF7C7FE04460F2189022046884304460C
:1039800022460021262000F0EFF870BD10B5044655
:1039900022460221032000F0D8F810BD70B505467C
:1039A00000211A20FFF7ADFE0446240D240528034C
:1039B000000B0443224600211A2000F0D5F870BD08
:1039C00010B50446224602492E2000F0BEF810BD74
:1039D0000418000070B5044603210420FFF7A6FE7A
:1039E0000546002C13DD224600210C2000F0ADF826
:1039F000102005430E4840690121090708430C497E
:103A000048612A460321042000F0C1F80EE010218D
:103A10002846884305460648406909068843044904
:103A200048612A460321042000F0B1F870BD00006F
:103A30001805002010B5044622460021182000F089
:103A400084F810BD70B50446E006C00E602108433E
:103A500005462A460E212B2000F099F870BD000083
:103A600010B5FEF795FD002211462C2000F06DF8F0
:103A7000002206212C2000F08AF8FEF75FFD0022CC
:103A80000321362000F083F80120FFF781FAF022AD
:103A90000321362000F07BF800200149887610BD14
:103AA00018050020F8B5044600260025002702204E
:103AB0002040002808D080252A4600210D2000F053
:103AC00066F8012016498876E007C00F00281DD04F
:103AD000062005432A4600210D2000F058F8032156
:103AE0000F20FFF7FBFD07468120C000384000286B
:103AF00001D1002611E040252A4600210D2000F0CA
:103B000046F8002006498876461E06E00220054356
:103B10002A4600210D2000F03AF83046F8BD00009A
:103B20001805002010B503210F20FFF7FFFD044604
:103B300080202040402121404900884204D00122B9
:103B400003210D2000F023F810BDF8B505460E4600
:103B500014466846047021124170B1B2A8B26B4697
:103B6000022200F01EF8F8BDF8B506460F461446CE
:103B7000002503E069464C55240A6D1C042DF9DB31
:103B8000B9B2B0B26B46042200F00BF8F8BD37B5FD
:103B900004460D46A9B2A0B202AB012200F001F822
:103BA0003EBDFFB581B006460C4617460025002CE9
:103BB00007D180203043C2B228466D1C69460A54A2
:103BC00019E0C0203043C2B228466D1C69460A5431
:103BD0007F2C03DC28466D1C0C540CE0E0B28021E5
:103BE000084329466D1C6A4650546004020E28465C
:103BF0006D1C69460A54A8B23A466946049B01F016
:103C000045FD05B0F0BD70B504460E4615462819B1
:103C100001218902884207DCA21E33462946092079
:103C2000FFF7BFFF002070BD0020C043FBE700008E
:103C3000F8B504460D4616460648C0682043A90557
:103C40000843F103084307463A4600210820FFF7DE
:103C50008BFFF8BD1805002030B5024600250D6029
:103C60004D600B46002003E0145C1C705B1C401C84
:103C70000528F9DB30BD70B50146002006E00A5486
:103C80001E06140A34431B0A2246401C0528F6DB94
:103C900070BD000070B504460D4600BF40210948C4
:103CA000FEF730FB0028F9D0E1B20648FEF7FDFB35
:103CB00000BF40210348FEF725FB0028F9D020462D
:103CC00070BD00000038014010B500210F20FFF743
:103CD00018FD0446214602A0FEF7ECFB10BD0000D3
:103CE0003078256C780D0A007CB500210C460D4615
:103CF0006846FFF768FD042608E0220E28021043FC
:103D0000240205466846805D0443761E002EF4DAE0
:103D1000204629467CBD7CB500210C460D466846F0
:103D2000FFF75AFD042608E0220E28021043240261
:103D300005466846805D0443761E002EF4DA204670
:103D400029467CBD012001490870704712010020FE
:103D50001FB554498888FCF74FFB0190FCF780FBA6
:103D60000546514A514BFCF7CFFA03910290FCF7FC
:103D700059FB0746FCF736FEFDF748F8FFF718F940
:103D8000FEF75EFA4A4841683020884700F000FAA2
:103D900000F064FA47A0FEF78DFB42484278418864
:103DA0004EA0FEF787FB7BE03E48007800283FD01E
:103DB0007D20000101E0411E88B2514909780029A7
:103DC00001D10028F7D100204D490870FFF7A3FF6B
:103DD0004C4A03C24B49086809790906000A08439E
:103DE000C4192046FFF752FD4748007847498870BC
:103DF00045480078401C44490870002043498872B7
:103E0000C8722848007908732648808800124873D1
:103E100000221020FFF7F7FE012200211020FFF7FB
:103E200007FF00BF0120FFF73DFE0028FAD137E071
:103E300000BF374800780028FBD0002034490870C4
:103E40003448407A402814D006DC10281DD01A28A7
:103E500015D02B281CD10FE05A2813D0802802D06F
:103E6000C02815D102E0FDF793FB15E0FDF7BCFC7F
:103E700012E0FDF70BFB0FE0FCF72EFD0CE0FEF768
:103E800021F809E0FDF72AFF06E0FEF751F803E00C
:103E90000020FFF7AAFC00BF00BF00201D494872A8
:103EA00082E70000AC000020285998CF0369703FDA
:103EB0009001002053797374656D20696E6974698F
:103EC000616C697A65642073756363657373667585
:103ED0006C6C792E2E2E2E2E2E0D0A00416E6368EC
:103EE0006F72204E756D6265723A20256409416ECD
:103EF00063686F7220547970653A2025640D0A005A
:103F00001800002008000020C1000020EC00002064
:103F10001B00002010030020F0B50B30C108C900C1
:103F2000144F0026144A0FE003688B420BD38B42D8
:103F300005D95C1A4318456830C3083B00E0436864
:103F4000136002C004E0021D10680028ECD1304666
:103F5000002803D13868002801D00020F0BD064AAF
:103F600006481060064A121AD208D20044C0012046
:103F70003860D7E78C02002088020020540500201A
:103F8000501500200149086070470000040000201F
:103F9000FFB581B006460F461D460024FFF702F824
:103FA0000090012109031B48FCF72AFF00BF0FE026
:103FB000395D1948FDF77CF900BF01211648FDF76E
:103FC00031F90028F9D01448FDF762F92870641C13
:103FD000B442EDDB00240FE000210F48FDF768F943
:103FE00000BF01210C48FDF71DF90028F9D00A484F
:103FF000FDF74EF92855641C03988442ECD30098D1
:10400000FEF7CCFF012109030248FCF7FBFE00206C
:1040100005B0F0BD00040048003800401CB5022087
:1040200000900121684601710321417100218171D5
:104030000221C17169460D48FCF76EFE02210B4852
:10404000FCF7DEFE0120FCF7AFFD0220009000210E
:1040500068460171032141710021C171694603481D
:10406000FCF75AFE0520FCF79FFD1CBD0008004828
:1040700010B504460020FFF7B8FB10BD70B504462C
:104080000026A5887F2D48DCA079022806D1E0799A
:10409000002803D10120224908703EE00821206851
:1040A0000840002818D004E0701C86B2C82E00D149
:1040B00007E0012109030920C006FCF797FE01284B
:1040C000F2D100BF0026FFF7A7F9FFF7C1FB80225E
:1040D00000210F20FFF748FD002229461148FFF775
:1040E00067FB0A220F491048FCF75AF8002802D152
:1040F000FFF77BFB70BD0A220A490B48FCF72CF83E
:104100000848407A80210840002803D0FFF7ECFDE2
:10411000064A03C201200649087000BFEAE7000012
:1041200019000020100300208F0300201000002041
:104130001B0000200121014A117070471A00002065
:1041400000B585B000211148FDF75EF800216846F2
:104150000180FF2105314180072109028180002172
:10416000C180018101214902418110218181002109
:10417000C1810721018269460448FDF75DF80121EC
:104180000248FDF741F805B000BD000000380040CE
:1041900000B587B001218804FCF7E2FE0121880305
:1041A000FCF7EEFE00220D212A48FCF7FDFD00225F
:1041B0000E212848FCF7F8FD00220F212548FCF7C6
:1041C000F3FD07204003009002216846017103219E
:1041D0004171002181710121C17169461D48FCF7BF
:1041E0009BFD002168460181FF21053141810721A6
:1041F000090281810021C18101820121490241829C
:10420000382181820021C1820721018302A912483D
:10421000FDF712F8012109030F48FDF73FF80121CE
:104220000D48FCF7F1FF01200003009001216846D2
:10423000017103214171002181710221C17169461F
:104240000448FCF769FD012109030248FCF7DAFD87
:1042500007B000BD000400480038004010B5FEF76C
:1042600005FF0F484088012803D100200C49487001
:1042700002E001200A49487009484078002801D12D
:10428000FCF742FC06480078002801D1FFF7ADFAA0
:1042900019204001FFF740FE0249086010BD0000F0
:1042A000AC000020E000002000B585B014220CA175
:1042B0006846FBF751FFFFF7AFF80022694613206D
:1042C000FFF7A1FC012200211320FFF7B1FC09A098
:1042D000FEF7F0F80220FFF7E5FB05B000BD000097
:1042E000618800CADE01000200A10200AC2E9D7DA3
:1042F0003D0000007465737466756E3120657865E5
:104300006375746564210D0A0000000000B585B076
:1043100014220CA16846FBF71FFFFFF77DF800226F
:1043200069460C20FFF76FFC012200210C20FFF7EB
:104330007FFC09A0FEF7BEF80220FFF7B3FB05B033
:1043400000BD0000418800CADEFFFF0100A00000A0
:10435000AC2E9D7D3D0000007465737466756E32F1
:10436000206578656375746564210D0A000000009E
:104370000121014A117070471800002010B5044651
:1043800001A0FEF797F810BD436869702077696C4B
:104390006C206578706C6F646520696E20332073C3
:1043A0006563732121210000F0B589B006460F46F0
:1043B0000020079006905748807A04905548C07AAC
:1043C00003905448C07908905248007A803801021E
:1043D0000898081880B208904E48807807904D4899
:1043E000007B05904B48407B01020598081880B27D
:1043F0000590002E13D04748007C02904548407C31
:1044000001020298081880B202904248807B019015
:104410004048C07B01020198081880B201903E48D4
:10442000056809E02C46183C61780898814202D161
:104430000120069003E02D6837488542F2D100BF85
:10444000069800281DD12020FFF766FD044620466F
:10445000183031490A68506002604160086000BF4E
:1044600000BF2E484078002806D12C498979C80021
:10447000FFF752FDA06006E00820FFF74DFDA060A9
:1044800001E02C46183C2548407800281CD1002F1C
:1044900013D1002E08D0214989798A001D49123193
:1044A000A068FBF759FE18E01C4989798A00194970
:1044B0000E31A068FBF750FE0FE019480168406814
:1044C000A2681160506008E0002F00D11FE014487E
:1044D00001684068A2681160506027700020207455
:1044E0000E488079E0700798A07008986070059871
:1044F000A080002E08D001202073029860820198CD
:10450000E081084800686061204609B0F0BD0020E5
:10451000FBE7000010030020FC000020AC0000209E
:1045200010000020E000002030B595B0054613AB28
:1045300012AA09A9284600F055FA0446002C02D018
:10454000204615B030BD0020149027E022490968AC
:1045500010AA127CD200891813AB11AA486801A9CD
:1045600000F040FA0446002C01D02046E9E709A9F2
:1045700001A800F0E6FC00280BD110A80179007A10
:10458000814201DD0220DCE710A8007C1249887519
:104590000AE010A8007C401CC1B214910E48007DB6
:1045A00010A9097C8842D1DC00BF0B48007D10A90E
:1045B000097C884201D10420C3E714A9284600F0F1
:1045C000FDFA0446002C01D02046BAE710A8007C72
:1045D000014948750020B4E790010020F0B59DB076
:1045E000A648847D007DA04201DC1DB0F0BDA3493A
:1045F0000968E200891809AB0AAA48680BA900F00B
:10460000F1F90BA99EA0FDF755FF002645E09B4858
:10461000008B0121B140084000281BD022219AA024
:10462000FDF748FF304600F051FB9449243147180C
:10463000394696A0FDF73EFF222193A0FDF73AFFF1
:10464000304600F043FB8D4924314018B10013AAD5
:10465000505018E0304600F039FB884924310858A2
:10466000B10013AA50508548C07D002805D1B00084
:10467000115887A0FDF71EFF05E0B00013AA1158DE
:1046800084A0FDF717FF08A8007A401EB04202D0B0
:1046900082A0FDF70FFF701CC6B208A8007A864200
:1046A000B5DB7FA0FDF706FF00F05EFB7348407DA1
:1046B0000300FDF726FF0B070E161F2A3746586C1E
:1046C0008299B1006D490968E20088588047054623
:1046D000A2E06A4A1268E300D15813988847054659
:1046E0009AE0664B1B68E700DA59149913989047D3
:1046F000054691E061490968E700CB59159A14997C
:10470000089113989847054686E05C490968E700D8
:10471000C959079114A90EC90891079F1398B84762
:10472000054679E01798554B00901B68E700DB5968
:104730000793169B0893079F13A807C8B847054619
:104740006AE0189917984D4A019100901268E300A9
:10475000D758169A0892159A0792089B149913989D
:10476000B847054658E0189A19991798019202918E
:104770000090424A1268E700D2590792169B159A98
:104780000892079F14991398B847054644E0189B70
:10479000179A19991A980193009202910390374A37
:1047A0001268E700D2590792169B159A0892079F44
:1047B00014991398B84705462EE0199B1B9A18992F
:1047C0001A980293049201910390179800902B4835
:1047D0000068E100475814A80DC808901398079086
:1047E0000899B847054617E01A9B1B9A1C99199817
:1047F00003930492059102901899179801910090E3
:104800001E480068E700C059079013A80FC8089019
:10481000079FB847054600BF00BF00F067FA08A829
:10482000007901280DD11548C07D002804D1294602
:104830001CA0FDF73FFE07E029461CA0FDF73AFE4D
:1048400002E019A0FDF736FE0C48E030007B00289E
:1048500012D00A498031086F0A21FBF767FC0F4626
:1048600006498031086F0A21FBF760FC3A46014691
:10487000089011A0FDF71EFE00BFB6E690010020D3
:104880000D0A257328000000256300002573000031
:10489000256C750030582558000000002C000000E1
:1048A000290000003D256C753B0D0A003D30582560
:1048B000583B0D0A0000000046756E6374696F6E08
:1048C0002052756E2054696D653A25642E25316439
:1048D0006D730D0A00000000F0B503461546002078
:1048E0000022002600245CE01F782C2F02D1002C2F
:1048F00000D101221F78292F02D01F78002F02D16A
:10490000002C00D14EE0002E36D11F78302F02DB74
:104910001F78392F11DD1F78612F02DB1F78662F7A
:104920000BDD1F78412F02DB1F78462F05DD1F7836
:10493000582F02D01F78782F0DD1002A00D031E0F7
:104940001F78612F03DB1F78203F0F7001E01F7875
:104950000F70491C22E01F78222F05D1002A00D0B9
:1049600020E00126012419E01F78202F16D01F789F
:104970002C2F13D0FF2615E01F78222F00D1002402
:10498000002A00D00EE0002C08D01F785C2F02D146
:104990005B1C471CF8B21F780F70491C471CF8B20B
:1049A0005B1CA1E700BF00270F702E70F0BD10B593
:1049B0000446002010700BE020780870641C491C2D
:1049C0001078401C10701078984201DB012010BD57
:1049D0002078202802D020780028EDD1002008700F
:1049E00000BFF4E7FFB587B00027002005900490D2
:1049F00001200390002000900025079C1EE02078F5
:104A0000202817D06806400E052813DA002D01D1A2
:104A1000802005436806400E042803D120782A2808
:104A200000D00EE020786906490E01AA5054681C97
:104A3000C5B202E0852D00D103E0641C2078002877
:104A4000DDD100BF002D12D000206906490E01AA59
:104A5000505458A101A800F074FA002803D1002195
:104A60000A98017002E001210A98017000250020D7
:104A70000690079C14E0641C0698401CC0B2069087
:104A80002078202802D020782A2809D1204600F05A
:104A9000E5F90646282E03D02A2E01D00698059067
:104AA0002078282802D020780028E4D1079C059897
:104AB000002802D00598401C2418002006900026EB
:104AC0005EE02078002802D10120069059E020788D
:104AD000282804D1002E02D1781CC7B217E0207814
:104AE00029280BD1002E09D1002F02D0781EC7B281
:104AF00001E001200690002F09D142E02078222811
:104B000005D1002E01D1012000E000200646002F33
:104B100009D12078202832D021780898017008988F
:104B2000401C08902BE020782C2804D10120039011
:104B3000681CC5B216E02078202813D020782828D9
:104B400010D0002D0AD10098052807DA217801AA93
:104B5000009811540098401CC0B200900398401C6B
:104B6000C0B20390012F0AD10398022807D10398FD
:104B7000401CC0B203900498401CC0B20490641C56
:104B80009FE700BF049801280AD1002101AA0098DC
:104B9000115408A101A800F0D4F9002800D1049014
:104BA00009990498087000210898017006980BB0C4
:104BB000F0BD0000766F696400000000F0B5B7B08A
:104BC00005460F460024002604E000213E4881559A
:104BD000701CC6B20A2EF8DB06E06D1C287800288F
:104BE00002D1012037B0F0BD28782828F5D16D1CFE
:104BF00064E036AA01A92846FFF76EFE0646AD1905
:104C000030A8007E002804D0012829D0FF284DD1EB
:104C10004AE068460079002821D035A901A800F0B3
:104C200028F90646002E01D00220DBE7204600F0DE
:104C30004DF825490A31359A0A5008462438008B28
:104C40000121A140884320491A39088304211E48C4
:104C50000155601CC4B20A2C01DD0320C2E725E027
:104C600001A800F08CF9401CC0B23490204600F03E
:104C70002DF815490A3140180146009001A800F0AE
:104C800072F911481A38008B0121A14008430E49DE
:104C90001A3908831A3134980855601CC4B20A2C9A
:104CA00001DD03209EE701E002209BE700BF28789A
:104CB000292802D02878002800D100E099E700BF19
:104CC0003C7000208EE70000AA0100200246002070
:104CD000002105E0044B5B5C1B18D8B24B1CD9B219
:104CE0009142F7DB70470000AA01002010B50121B6
:104CF0000A48FCF78AFF012805D10948006F0949D5
:104D00004118074801670548FCF77CFF0449096F13
:104D1000411803480167006F10BD000000200040EB
:104D200010020020FFFF000010B504462046642258
:104D30005043401E81B27D20C000FDF703FA0120E0
:104D40000149C87510BD00009001002010B5024651
:104D5000012002E00346534318460B464C1EE1B2C5
:104D6000002BF7D110BD000010B501210748FCF75A
:104D700035FF07490548FCF76FFF00210348FCF7A2
:104D80006DFF00210348016710BD000000200040B6
:104D9000FFFF00001002002070B51F4800880121AD
:104DA000C9030840002835D01B48057800201B495E
:104DB00048551B488168194888470446002C03D190
:104DC0001749C868804722E0144800F0E5F8054616
:104DD000012D00D02C46002C19D0012C06D0022C1D
:104DE00008D0032C0AD0042C10D10BE00DA0FDF745
:104DF00061FB0BE00EA0FDF75DFB07E00FA0FDF7E8
:104E000059FB03E010A0FDF755FB00BF00BF0020D9
:104E10000149088070BD00000000002090020020C1
:104E200090010020BAAFCAFDB4EDCEF3210D0A0007
:104E3000B2CECAFDB4EDCEF3210D0A00B2CECAFD4A
:104E4000CCABB6E0210D0A00CEB4D5D2B5BDC6A517
:104E5000C5E4B5C4BAAFCAFD210D0A000146491C1C
:104E600000E0491C0878202801D10029F9D10878F0
:104E70007047FCB507460E4600250A2000903C46C8
:104E8000002030601FE02078392802DC20783028AC
:104E90000ADA2078462802DC2078412804DA2078D3
:104EA000582809D1012D07D12078412801DB102095
:104EB0000090681CC5B205E02078002800D103E00E
:104EC0000120FCBD641CDEE700BF3C4600981028B2
:104ED0000FD1032D01DA0220F3E72078302806D124
:104EE0006078582803D1A41CA81EC5B205E0032091
:104EF000E7E7002D01D10420E3E71EE0002D01D0FB
:104F0000681EC5B22078392806DC2078302803DBFB
:104F100020783038019002E0207837380190294617
:104F20000098FFF713FF019948433168401830603B
:104F3000641C2078002800D100E0DFE700BF0020DB
:104F4000BFE702460BE010780B78984201D00120B1
:104F500070471078002800D102E0521C491CF2E78B
:104F600000BF0020F4E707E002780A700278002A08
:104F700000D102E0401C491CF6E700BF7047014623
:104F8000002006E00A78002A00D103E0421CD0B2DB
:104F9000491CF7E700BF704710B58CB004461E23CC
:104FA0000BAA03A92046FFF702FD009000980028F5
:104FB00002D001200CB010BD08A8007B24180021ED
:104FC0000B910FE008A8007B80003F4A115803A80E
:104FD000FFF7B7FF002800D108E008A8007B401CBD
:104FE000C1B20B9108A8007B0728EBD300BF08A82B
:104FF000007B0300FDF785FA0705063D5F666564E3
:10500000630000BF31A0FDF755FA31A0FDF752FA59
:105010003FA0FDF74FFA4EA0FDF74CFA5CA0FDF75C
:1050200049FA6BA0FDF746FA79A0FDF743FA86A08E
:10503000FDF740FA8BA0FDF73DFA90A0FDF73AFA94
:1050400094A0FDF737FA99A0FDF734FA9EA0FDF77A
:1050500031FAA4A0FDF72EFAB0A0FDF72BFABDA0FF
:10506000FDF728FAC8A0FDF725FAD4A0FDF722FA2B
:105070009EE216A0FDF71EFAE0A0FDF71BFA002045
:105080000B900EE0ED48026808A8007BC0001018E5
:105090004168EBA0FDF70EFA08A8007B401CC1B2E6
:1050A0000B91E648007D08A9097B8842EADC07A04D
:1050B000FDF700FA7CE205A0FDF7FCF9C4E175E21A
:1050C00047E219E2EBE100003C0100200D0A00007C
:1050D0002D2D2D2D2D2D2D2D2D2D2D2D2D2D2D2D00
:1050E0002D2D2D2D2D2D2D2D55534D415254205606
:1050F000332E312D2D2D2D2D2D2D2D2D2D2D2D2DD5
:105100002D2D2D2D2D2D2D2D2D2D2D200D0A000079
:105110002020202055534D415254CAC7D3C9414C79
:1051200049454E54454BBFAAB7A2B5C4D2BBB8F649
:10513000C1E9C7C9B5C4B4AEBFDAB5F7CAD4BBA517
:10514000BDBBD7E9BCFE2CCDA8B9FD200D0A0000DF
:10515000CBFC2CC4E3BFC9D2D4CDA8B9FDB4AEBF3B
:10516000DAD6FACAD6B5F7D3C3B3CCD0F2C0EFC300
:10517000E6B5C4C8CEBACEBAAFCAFD2CB2A2D6B478
:10518000D0D02ED2F2B4CB2CC4E3BFC90D0A00009C
:10519000D2D4CBE6D2E2B8FCB8C4BAAFCAFDB5C42B
:1051A000CAE4C8EBB2CECAFD28D6A7B3D6CAFDD78B
:1051B000D62831302F3136BDF8D6C629A1A2D7D690
:1051C000B7FBB4AEA1A2BAAFCAFDC8EB0D0A00008E
:1051D000BFDAB5D8D6B7B5C8D7F7CEAAB2CECAFD12
:1051E000292CB5A5B8F6BAAFCAFDD7EEB6E0D6A75A
:1051F000B3D63130B8F6CAE4C8EBB2CECAFD2CB291
:10520000A2D6A7B3D6BAAFCAFDB7B5200D0A000023
:10521000BBD8D6B5CFD4CABE2ED0C2D4F6B2CECA71
:10522000FDCFD4CABEBDF8D6C6C9E8D6C3B9A6C498
:10523000DC2CD0C2D4F6BDF8D6C6D7AABBBBB9A663
:10524000C4DC2E0D0A000000BCBCCAF5D6A7B3D63C
:105250003A7777772E6F70656E6564762E636F6D23
:105260000D0A000055534D415254D3D037B8F6CFF4
:10527000B5CDB3C3FCC1EE3A0D0A00003F3A202081
:1052800020202020BBF1C8A1B0EFD6FAD0C5CFA214
:105290000D0A000068656C703A202020BBF1C8A19F
:1052A000B0EFD6FAD0C5CFA20D0A00006C697374B6
:1052B0003A202020BFC9D3C3B5C4BAAFCAFDC1D0FC
:1052C000B1ED0D0A0A00000069643A202020202078
:1052D000BFC9D3C3BAAFCAFDB5C44944C1D0B1ED4B
:1052E0000D0A0A006865783A20202020B2CECAFD57
:1052F0003136BDF8D6C6CFD4CABE2CBAF3B8FABF81
:10530000D5B8F12BCAFDD7D6BCB4D6B4D0D0BDF831
:10531000D6C6D7AABBBB0D0A0A0000006465633A73
:1053200020202020B2CECAFD3130BDF8D6C6CFD461
:10533000CABE2CBAF3B8FABFD5B8F12BCAFDD7D67E
:10534000BCB4D6B4D0D0BDF8D6C6D7AABBBB0D0A64
:105350000A00000072756E74696D653A312CBFAA3F
:10536000C6F4BAAFCAFDD4CBD0D0BCC6CAB13B30AC
:105370002CB9D8B1D5BAAFCAFDD4CBD0D0BCC6CA2F
:10538000B13B0D0A0A000000C7EBB0B4D5D5B3CCD1
:10539000D0F2B1E0D0B4B8F1CABDCAE4C8EBBAAF3C
:1053A000CAFDC3FBBCB0B2CECAFDB2A2D2D4BBD838
:1053B000B3B5BCFCBDE1CAF82E0D0A002D2D2D2D74
:1053C0002D2D2D2D2D2D2D2D2D2D2D2D2D2D2D2D0D
:1053D0002D2D2D2D2D2D414C49454E54454B2D2D18
:1053E0002D2D2D2D2D2D2D2D2D2D2D2D2D2D2D2DED
:1053F0002D2D2D2D2D2D2D200D0A00002D2D2D2D87
:105400002D2D2D2D2D2D2D2D2D2D2D2D2D2D2D2DCC
:105410002D2D2D2D2DBAAFCAFDC7E5B5A52D2D2DEE
:105420002D2D2D2D2D2D2D2D2D2D2D2D2D2D2D2DAC
:105430002D2D2D2D2D2D2D2D200D0A00900100201C
:1054400025730D0A000000005BA0FDF733F8002073
:105450000B901AE068490A6808A9097BC90051182D
:1054600001AB02AA486803A9FFF7BCFA62480168C9
:1054700008A8007BC0000A5803A960A0FDF71AF82D
:1054800008A8007B401CC1B20B915B48007D08A9B5
:10549000097B8842DEDC5EA0FDF70CF888E05CA0AA
:1054A000FDF708F80BAA03A92046FFF715FA08A88C
:1054B000007B00281AD1694603A8FFF7DAFC0B909D
:1054C00008A9087B002804D152A00099FCF7F2FF3C
:1054D0000EE008A8007B042801D002206AE550A055
:1054E000FCF7E8FF01204449C87501E0022061E5AE
:1054F00047A0FCF7DFFF5BE045A0FCF7DBFF0BAA52
:1055000003A92046FFF7E8F908A8007B00281AD174
:10551000694603A8FFF7ADFC0B9008A9087B00289B
:1055200004D144A00099FCF7C5FF0EE008A8007B59
:10553000042801D002203DE541A0FCF7BBFF00207C
:105540002D49C87501E0022034E531A0FCF7B2FF17
:105550002EE02FA0FCF7AEFF0BAA03A92046FFF711
:10556000BBF908A8007B00281AD1694603A8FFF7F9
:1055700080FC0B9008A9087B00280FD10098C1B2CD
:105580001D48E0300173007B002803D031A0FCF7F8
:1055900091FF07E036A0FCF78DFF03E0022009E54C
:1055A000022007E51AA0FCF785FF01E0012001E5D4
:1055B00000BF0020FEE400002D2D2D2D2D2D2D2DC2
:1055C0002D2D2D2D2D2D2D2D2D2D2D2D2D2D2D2D0B
:1055D0002DBAAFCAFD204944202D2D2D2D2D2D2D66
:1055E0002D2D2D2D2D2D2D2D2D2D2D2D2D2D2D2DEB
:1055F0002D2D2D2D200D0A009001002025732069EE
:10560000642069733A0D0A3058253038580D0A0065
:105610000D0A00004845583A305825580D0A000038
:105620003136BDF8D6C6B2CECAFDCFD4CABE210D22
:105630000A0000004445433A256C750D0A0000003D
:105640003130BDF8D6C6B2CECAFDCFD4CABE210D08
:105650000A00000052756E2054696D652043616C2C
:1056600063756C6174696F6E204F4E0D0A00000007
:1056700052756E2054696D652043616C63756C6171
:1056800074696F6E204F46460D0A0000FFB581B069
:1056900005460E4617460024FDF784FC00900121C4
:1056A00009031A48FBF7ACFB00BF0EE0315D184858
:1056B000FBF7FEFD00BF01211548FBF7B3FD0028F5
:1056C000F9D01348FBF7E4FD641CAC42EEDB002488
:1056D0000FE00498015D0E48FBF7EAFD00BF0121D1
:1056E0000B48FBF79FFD0028F9D00948FBF7D0FDD8
:1056F000641CBC42EDD3012109030448FBF782FB83
:105700000098FDF74BFC002005B0F0BD00040048F8
:1057100000380040418800CADE000001002C000073
:105720000000000000000000418800CADE00000107
:105730000040000000000000418800CADE000001B7
:105740000040000000000000418800CADE010001A6
:1057500000200000418800CADE0100000041000076
:105760000000000000000000418800CADE010001C6
:1057700000200000FEFE000000000000000000000D
:10578000418800CADE000000001000000000010295
:1057900003040005405C0000A05C0400C06C08002D
:1057A000805C0400E03F1E00E07D1E00070400094D
:1057B0000805400809104008080540081D040008B5
:1057C0001D0400081E265626BEBED8BC07A9022509
:1057D00070889B88401008000A001600010006002F
:1057E0000100020087008D002D001A3152001A338B
:1057F0009A001A351D011A376B003B31BE003B334E
:105800005E013B3596023B37000098599859EA51A2
:105810008E421E45142E0080EA51F4283233E03ABD
:10582000703DE03AC235842BC2353233C235C235C1
:10583000AE47E03A5038A230503800003F00000038
:10584000646563006964000072756E74696D65005B
:1058500068656C70000000006C69737400000000E3
:1058600068657800766F6964207465737466756E18
:105870003128766F69642900766F696420746573D6
:105880007466756E3228766F69642900766F696474
:1058900020676F696E6728766F69642900000000D1
:1058A000766F69642053686F7754696D65537461CE
:1058B000636B28766F69642900000000766F696465
:1058C0002067657453595373746174757328766FC8
:1058D00069642900766F696420444D415F74657383
:1058E0007428766F69642900766F696420756E6C20
:1058F0006F636B666C61736828756E7369676E653C
:105900006420696E742070617373776429000000ED
:1059100030590008000000209002000082080008B2
:10592000E459000890020020C01600002E2500084F
:10593000012013618823CADE0278011401011413C7
:10594000020222022A810E1112C81A059128094169
:10595000434B444154525897191B215CFBFB110ADD
:10596000B16AFF081901312B0341CC290B62802257
:10597000FC2A2004F97469082C02030404150607A4
:1059800008097B6CDC5F6914133C581B0850041A2F
:1059900058041A44041A60041A40041A4804137D77
:1059A000431B08E80813A9421B0864081A0D101AC3
:1059B000780813790B1B08D40813453D2B088C2855
:1059C00012131B08A00813C93C2B08BC4C1201146D
:1059D00020294D140829451B08DD041A990C8A0753
:0459E0009301E1004E
:04000005080000C12E
:00000001FF
